:020000040800F2
:10000000D007002029020008150D0008D10B0008B8
:10001000110D000879050008911600080000000085
:10002000000000000000000000000000F10E0008C9
:10003000A10A000800000000A50D0008B11000088A
:10004000430200084302000843020008430200087C
:10005000430200084302000843020008430200086C
:10006000430200084302000843020008430200085C
:1000700043020008430200087D050008430200080F
:10008000A90500080506000843020008430200080D
:10009000430200084302000843020008430200082C
:1000A000430200081D110008430200084302000833
:1000B000430200084302000843020008430200080C
:1000C00043020008430200084302000843020008FC
:1000D0004302000829120008430200086D120008BC
:1000E00043020008430200084302000843020008DC
:1000F00043020008430200084302000843020008CC
:1001000043020008430200084302000843020008BB
:1001100043020008430200084302000843020008AB
:1001200031060008430200084302000843020008A9
:10013000430200084302000843020008430200088B
:10014000430200084302000843020008430200087B
:10015000430200084302000843020008B5120008E9
:10016000430200084302000843020008430200085B
:10017000430200084302000843020008430200084B
:10018000430200084302000800F002F800F03CF8C7
:100190000AA090E8000C82448344AAF10107DA45E2
:1001A00001D100F031F8AFF2090EBAE80F0013F0F8
:1001B000010F18BFFB1A43F0010318471C1500007C
:1001C0003C150000103A24BF78C878C1FAD852070D
:1001D00024BF30C830C144BF04680C6070470000C1
:1001E0000023002400250026103A28BF78C1FBD840
:1001F000520728BF30C148BF0B6070471FB501F0E0
:1002000066FA1FBD10B510BD00F0A8F81146FFF743
:10021000F5FF01F04CFA00F0C6F803B4FFF7F2FF67
:1002200003BC00F0CDF800000948804709480047AA
:10023000FEE7FEE7FEE7FEE7FEE7FEE7FEE7FEE796
:10024000FEE7FEE704480549054A064B70470000F3
:10025000B510000889010008D0010020D007002057
:10026000D0030020D0030020032A40F2308010F099
:10027000030C00F0158011F8013BBCF1020F624441
:1002800098BF11F801CB00F8013B38BF11F8013BD2
:10029000A2F1040298BF00F801CB38BF00F8013B7F
:1002A00011F0030300F02580083AC0F0088051F8EF
:1002B000043B083A51F804CBA0E80810F5E7121DFA
:1002C0005CBF51F8043B40F8043BAFF30080D20719
:1002D00024BF11F8013B11F801CB48BF11F8012BE5
:1002E00024BF00F8013B00F801CB48BF00F8012B08
:1002F000704710B5203AC0F00B80B1E81850203A92
:10030000A0E81850B1E81850A0E81850BFF4F5AFB5
:100310005FEA027C24BFB1E81850A0E8185044BF3F
:1003200018C918C0BDE810405FEA827C24BF51F8AC
:10033000043B40F8043B08BF7047D20728BF31F8A0
:10034000023B48BF11F8012B28BF20F8023B48BFF1
:1003500000F8012B7047704770477047754600F0F2
:100360002BF8AE4605006946534620F00700854647
:1003700018B020B5FFF766FFBDE820404FF000063B
:100380004FF000074FF000084FF0000B21F007017D
:10039000AC46ACE8C009ACE8C009ACE8C009ACE8C0
:1003A000C0098D46704710B50446AFF30080204663
:1003B000BDE81040FFF731BF004870476C010020D6
:1003C00001491820ABBEFEE726000200704721B1AC
:1003D000826842F00102826003E0826822F001023A
:1003E000826070470021084A1168084A1140D0E92C
:1003F00000231A4383681A43C3681A431143044A0B
:10040000C2F804137047000004230140E030FCFFF1
:100410000020014021B1826842F48072826003E0D2
:10042000826822F480728260704721B1826842F44F
:100430000072826003E0826822F40072826070477A
:1004400030B50246002000235068104C20400D7942
:100450000C6844EA05242043506090680C4C20400E
:10046000D1E903542C438D682C434D7944EA45046B
:1004700020439060D06A20F470000C7D641EE4B2CA
:10048000234340EA0350D06230BD0000FFFEFFFC72
:10049000FDF7FFC0F0B504460D4600200021092DF0
:1004A00011DDE068A5F10A0606EB4607072606FA05
:1004B00007F18843A5F10A0606EB460603FA06F1A2
:1004C0000843E0600CE0206905EB4507072606FAC3
:1004D00007F1884305EB450603FA06F1084320615E
:1004E000072A0FDA606B561E06EB86071F2606FAF0
:1004F00007F18843561E06EB860605FA06F1084307
:10050000606322E00D2A0FDA206BD61F06EB860708
:100510001F2606FA07F18843D61F06EB860605FA62
:1005200006F10843206310E0E06AA2F10D0606EB35
:1005300086071F2606FA07F18843A2F10D0606EB8F
:10054000860605FA06F10843E062F0BD816841F0D5
:10055000804181607047000010B50121054800F01E
:1005600023FC0121880200F03FFC00F09BFA00F020
:10057000E1F810BD2000400000BFFEE710B50849BB
:10058000084800F00FFA012808D10021054800F0C2
:10059000C5F84FF0C051034800F08CF810BD0000C2
:1005A000008000185860024010B51149114800F051
:1005B000F9F901281AD100210E4800F0AFF80E49D0
:1005C0000C4800F077F801210A4800F0A7F825212F
:1005D0000848183000F062FA252208490848FFF759
:1005E00088FE01210348183000F098F810BD000083
:1005F00000880020886002400008002000000020E1
:100600000800002010B50749074800F0CBF9012881
:1006100007D10021044800F081F80449024800F0A5
:1006200049F810BD00802020A0600240000020207A
:1006300010B52DED028B1B491B4800F0B3F968B3D0
:100640001849194800F050F80021174800F066F8E2
:100650000221154800F022FA14490888C11700EB5E
:10066000115109134CF25032514342F2486291FB4E
:10067000F2F100EE101AB8EEC08A212408E0A4F1CD
:100680002100B0EE480A01F00BF809490855641C36
:10069000252CF4DB0121044800F040F8BDEC028B6E
:1006A00010BD000020800010106402406400002093
:1006B000100100200246094B9A4201D2084801E08D
:1006C0000648103801F000531BB1064B0B40C360C5
:1006D00002E0044B0B40836070470000106402404E
:1006E000006002407D0F7D0F0246094B9A4201D205
:1006F000084801E00648103801F000531BB1064BD2
:100700000B40C36002E0044B0B4083607047000065
:1007100010640240006002407D0F7D0F21B102682D
:1007200042F00102026003E0026822F0010202606E
:100730007047000000B59BB04FF4C06000F028FB8C
:1007400038208DF8040002208DF8050003208DF874
:10075000060000208DF8070001A800F0DDFA4FF038
:10076000806006902F4807902F480890002009903D
:1007700001200A9000200B900C904FF400600D9027
:1007800080000E9040110F904002109000201190B8
:100790000120129000201390149006A9234800F025
:1007A00051F901212148FFF7B9FF012210211F480B
:1007B00000F02AF9002002904FF4803003900020CE
:1007C0000490059002A8FFF70DFE002015908DF80B
:1007D00058008DF859001790199001208DF8680085
:1007E00015A910484C38FFF72BFE01231A460921A2
:1007F0000C484C38FFF74EFE01210A484C38FFF7F1
:1008000014FE012107484C38FFF704FE012105487A
:100810004C38FFF7DCFD03484C38FFF797FE1BB060
:1008200000BD00004C220140640000201064024022
:10083000016821F0010101600021016041608160D7
:10084000C1600161212141614A49884204D13D21B1
:10085000484A103A91608CE046491831884205D1E7
:100860004FF47461434A103A916082E0414930315B
:10087000884205D14FF474113E4A103A916078E0F5
:100880003C494831884205D14FF07461394A103AE9
:1008900091606EE037496031884204D13649354A6B
:1008A000103AD16065E033497831884204D1334948
:1008B000304A103AD1605CE02E499031884204D130
:1008C0002F492C4A103AD16053E02A49A831884276
:1008D00005D14FF03D51274A103AD16049E02949EE
:1008E000884204D13D21274A083A116041E0254958
:1008F0001831884205D14FF47461224A083A1160D8
:1009000037E020493031884205D14FF474111D4A37
:10091000083A11602DE01B494831884205D14FF05B
:100920007461184A083A116023E016496031884220
:1009300004D11149134A121F11601AE0114978318C
:10094000884204D10D490F4A121F116011E00D4970
:100950009031884204D10A490A4A121F116008E006
:100960000849A831884204D14FF03D51054A121F71
:1009700011607047106002403D000020400F0020D1
:1009800000003D2010640240014600200A6802F089
:1009900001020AB1012000E00020704701464868CA
:1009A00080B2704770B50246002000240025124E28
:1009B000B24201D2114B01E00F4B103B104E0E40E2
:1009C00036B11E2606EAD124166806EA040502E0BE
:1009D000566906F0800501F000560EB15C6800E033
:1009E0001C68084E344004EA010616B10DB101201E
:1009F00000E0002070BD0000106402400060024072
:100A00003C0F3C0F7D0F7D0F10B501F080034BB103
:100A100022B1436943F08003436103E0436923F05B
:100A20008003436180290BD02AB1036801F01E04C2
:100A30002343036004E0036801F01E04A343036042
:100A400010BD000010B500220268134B1A40CC689C
:100A50000B6823434C6923438C692343CC692343AC
:100A60000C6A23434C6A23438C6A23434C6B234315
:100A70008C6B23431A430260426922F00702D1E9DA
:100A80000B3423431A4342610B6943604B68836014
:100A90008B68C36010BD00003F801CF04160704750
:100AA000704700001CB50820009003208DF804005A
:100AB00000208DF807006946014800F003F81CBDCE
:100AC00000140240F0B50A4600210023002400BFB4
:100AD0003DE0012505FA01F3156805EA03049C428F
:100AE00034D105684F000326BE40B5430560157933
:100AF0004E00B5400668354305601579012D02D0DA
:100B00001579022D16D185684F000326BE40B543E6
:100B1000856055794E00B5408668354385604568E7
:100B200001268E40B5434560456896798E40B6B241
:100B300035434560C5684F000326BE40B543C560D8
:100B4000D5794E00B540C6683543C560491C1029AB
:100B5000BFD3F0BDF0B5002300244D07ED0E02FA1F
:100B600005F3CE1000F1200555F826504E07F70E7C
:100B70000F26BE40B543CF1000F1200646F827509F
:100B8000CE1000F1200555F8265045EA0304CE109A
:100B900000F1200545F82640F0BD018370470000B4
:100BA00010B50848FFF7D2FC212408E0A4F1210188
:100BB0000548008800F06EFD04490855641C252C8A
:100BC000F4DB10BD00220140640000201001002071
:100BD00000BFFEE710B504460121102000F004F923
:100BE0000121880500F0E0F80121084600F0DCF85A
:100BF000072209213E48FFF7ADFF07220A213C48A2
:100C0000FFF7A8FF4FF400703A49086002204871CE
:100C10000871002088710120C8713548FFF752FF24
:100C20004FF4806033490860022048710871002049
:100C30008871C8712E48FFF745FF2F4804600020D7
:100C40002D498880C88008810C2048810020888137
:100C50002A4800F0B7FB2A48FFF7EAFD00BF284802
:100C6000FFF792FE0028FAD14FF000602549086096
:100C70002248001D4860244888600020C860212068
:100C80000861002048614FF4806088610020C861DD
:100C900008624FF480704862000288620020C862D7
:100CA000032008630020486388631548FFF7CAFEE5
:100CB0002520164908700320487088700120C870EC
:100CC000084600F029F8012240F224410B4800F0C8
:100CD00054FB01224021094800F01CFB0121074878
:100CE00000F00CFB01210648FFF718FD10BD0000C5
:100CF0000000024054000020C40000200010014009
:100D000088640240D4000020A30000204D00002091
:100D100000BFFEE77047000070B5002100230F22DE
:100D2000C4781CB3174C246804F4E064C4F5E06490
:100D3000C4F30721C1F10404E3B20A4144789C40A2
:100D4000E1B28478144021430C07210E0E4C057843
:100D50006155047804F01F050124AC4005786D113D
:100D6000AD0005F1E025C5F8004109E0047804F084
:100D70001F050124AC40054D0678761145F8264044
:100D800070BD00000CED00E000E400E080E100E058
:100D900002490143024A1160704700000000FA0551
:100DA0000CED00E07047000029B1064A12680243CA
:100DB000044B1A6004E0034A12688243014B1A6034
:100DC000704700003038024029B1064A12680243D9
:100DD000044B1A6004E0034A12688243014B1A6014
:100DE000704700004038024029B1064A12680243A9
:100DF000044B1A6004E0034A12688243014B1A60F4
:100E00007047000044380240F0B500210022002461
:100E1000022500260223324F3F6807F00C0121B162
:100E2000042905D0082937D105E02E4F076036E0A8
:100E30002D4F076033E02A4F3F1F3F68C7F38056AE
:100E4000274F3F1F3F6807F03F036EB1264FB7FBA8
:100E5000F3F7DFF88CC0ACF1040CDCF800C0CCF385
:100E6000881C07FB0CF40CE01E4FB7FBF3F7DFF810
:100E700070C0ACF1040CDCF800C0CCF3881C07FB9C
:100E80000CF4174F3F1F3F68C7F301477F1C7D00DD
:100E9000B4FBF5F7076002E0124F076000BF00BF28
:100EA0000F4F3F6807F0F0010909104F7A5C07689F
:100EB000D74047600A4F3F6807F4E051890A0B4F5B
:100EC0007A5C4768D7408760054F3F6807F4604108
:100ED000490B064F7A5C4768D740C760F0BD0000F9
:100EE000083802400024F40000127A006600002056
:100EF0007047000010B501210846FFF775FF192063
:100F0000124908700120C870487000208870084697
:100F1000FFF702FF42F20F700D49486040F28F6008
:100F2000088000200881488088720A4800F03AF959
:100F30000121084800F01EF901221146054800F081
:100F400028F90121034800F018F910BD4D000020D8
:100F5000600100200000014010B501212020FFF7B2
:100F600023FF01210420FFF71FFF4FF400701249F7
:100F7000086001200871002088710220487100205B
:100F8000C8710E48FFF79EFD4FF400710B48FFF744
:100F900004FE0120084908600871002088710220C1
:100FA00048710020C8710648FFF78CFD4FF40071AE
:100FB0000348FFF7F2FD10BD54000020001402406A
:100FC000000802400CB500200190009034480068F1
:100FD00040F480303249086000BF3148006800F4B6
:100FE000003000900198401C0190009818B90198B9
:100FF000B0F5A04FF1D12A48006800F4003010B1DC
:101000000120009001E0002000900098012846D1C6
:1010100023484030006840F080502149403108604A
:101020002048006840F440401E4908601C480830D1
:1010300000681B49083108600846006840F4004019
:1010400008600846006840F4A05008601648091F70
:101050000860081F006840F08070091F086000BF2A
:101060000F48006800F000700028F9D040F20570C9
:101070000E4908600A480830006820F0030008495B
:10108000083108600846006840F00200086000BFB0
:1010900003480830006800F00C000828F8D10CBDA7
:1010A000003802400070004008544007003C0240F5
:1010B0007047000010B51548006840F470001349EF
:1010C00008601348006840F00100114908600020E2
:1010D0000F49083108600E4800680E4908400C4965
:1010E00008600D48091D0860081F006820F4802072
:1010F000091F0860002006490C310860FFF762FFF5
:101100004FF0006001498039086010BD88ED00E0B3
:1011100000380240FFFFF6FE1030002410B5012118
:101120000F4800F027F80F48007855280CD10D48DB
:101130004078512808D1002004E00A49095C0A4A95
:101140001154401C2128F8DBFFF72AFD252206490F
:101150000648FFF789F801210548FFF7DFFA10BDBF
:1011600000000140A3000020100100200800002022
:10117000A0600240CA430282704721B1028842F057
:101180000102028004E002884FF6FE731A400280DA
:1011900070471AB183890B43838102E083898B43B3
:1011A0008381704700220288184B98420ED0184B5A
:1011B00098420BD0B0F1804F08D0164B984205D022
:1011C000154B984202D0154B984204D14FF68F73BD
:1011D0001A404B881A43124B984207D0114B984241
:1011E00004D04FF6FF431A400B891A4302804B6824
:1011F000C3620B880385054B984202D0044B98428A
:1012000001D18B7A0386012383827047000001405D
:10121000000401400004004000080040000C0040B1
:10122000001000400014004010B540F224410C486A
:1012300000F079F890B100210A48FFF76FFA0848EA
:101240000488848808490748FFF734FA21210548B3
:10125000FFF724FC01210348FFF760FA10BD0000EE
:101260000010014088640240400F002010B540F299
:1012700024410E4800F057F8B0B100240B48048810
:10128000001D048800210A48FFF748FA0848FFF7C4
:1012900085FBC0F1140414210548FFF7FFFB012171
:1012A0000348FFF73BFA00BF10BD000000480040B4
:1012B0002860024010B540F224410E4800F033F897
:1012C000B0B100240B480488001D048800210A489E
:1012D000FFF724FA0848FFF761FBC0F12B042B212C
:1012E0000548FFF7DBFB01210348FFF717FA00BFB2
:1012F00010BD0000001401404064024021B1828909
:1013000042F40052828104E082894DF6FF731A4054
:10131000828170471AB1838A0B43838202E0838AF9
:101320008B438382704770B502460024002300255A
:10133000002040F66A16B14200D100BFC1F3421549
:1013400001F01F03012606FA03F3012D02D196894D
:10135000334006E0022D02D1168A334001E0968A1E
:1013600033400C12012606FA04F41688344013B1F7
:101370000CB1012000E0002070BDF0B50346002450
:1013800000260025002040F66A17B94200D100BFB0
:101390001846C1F3421401F01F06012707FA06F5AB
:1013A000012C01D10C3004E0022C01D1103000E0FE
:1013B00014301AB107682F43076002E00768AF4393
:1013C0000760F0BD2DE9FF4705460E460024A14603
:1013D00000BFA046B08900B100BF2C8A24F440545D
:1013E000F08804432C82AC8941F20C608443B088BD
:1013F00031890843718908430443AC81AC8A24F4E1
:101400004074B0890443AC826846FFF7FDFC204875
:10141000854202D01F48854202D1DDF80C9001E0E0
:10142000DDF80890A88900F4004040B109EBC9003C
:1014300000EB091031684900B0FBF1F707E009EB58
:10144000C90000EB091031688900B0FBF1F7642096
:10145000B7FBF0F004012009642101FB1078A88992
:1014600000F4004040B1322000EBC800B0FBF1F0C6
:1014700000F00700044308E0322000EB081064216C
:10148000B0FBF1F000F00F0004432C81BDE8FF87B2
:10149000001001400014014010B504460121480429
:1014A000FFF792FC01214805FFF77EFC0121084669
:1014B000FFF77AFC072202216A48FFF74BFB042062
:1014C0006949086002204871087100208871012074
:1014D000C8716448FFF7F6FA0820634908600220E3
:1014E0004871087100208871C8715E48FFF7EAFAF8
:1014F0005E48FFF79DF94FF000605D4908605D4868
:1015000048605D4888600020C860042008610020B1
:1015100048614FF4806088610020C86108624FF420
:1015200080704862400288620020C862012008631F
:101530000020486388634D48FFF784FA4B48183011
:10154000FFF776F94FF00060494908604948486064
:101550004A4888604020C860252008610020486112
:101560004FF4806088610020C861086248624FF4CF
:10157000003088620020C8620120086300204863B0
:1015800088633A481830FFF75DFA3D480460002050
:101590003B498880C88008810C20488100208881D0
:1015A0003448001FFFF70EFF4FF4E060FFF7F0FB39
:1015B00010203449087000204870042088700120F1
:1015C000C8700846FFF7A8FB11202E4908700020BC
:1015D0004870062088700120C8700846FFF79CFB01
:1015E00026202849087000204870052088700120B6
:1015F000C8700846FFF790FB01211C48FFF78EF8E2
:1016000000211A481830FFF789F801228021194873
:10161000001FFFF77FFE012240211648001FFFF741
:1016200079FE012210211148FFF7EEF90122102165
:101630000E481830FFF7E8F913490C48FFF754F843
:1016400012490A481830FFF74FF8012240F22441AE
:101650000848001FFFF791FE01210648001FFFF711
:101660004DFE10BD00000240540000208860024082
:10167000D4000020044400402D0000200800002079
:10168000C40000204D0000200088002000802020A1
:1016900000BFFEE708B5024600921DF8010008BD34
:1016A00008B501468DED000A1DF8010008BDFFF7E1
:1016B00053FC4FF41650FFF78DFA4FF4E130FFF76B
:1016C000EBFEFEF749FFFFF715FC00BFFEE74FF00A
:1016D0004070E1EE100A7047F81600080000002084
:1016E00078000000C401000870170008780000208E
:1016F00058070000E00100085A0101000000005CEA
:1017000007000000000000000000000000000000D2
:1017100000000000000000000000000000000000C9
:1017200000000000000000000005000000000000B4
:1017300000060000000000000000000000000000A3
:101740000000000000000000000000000000000099
:101750000000000000000000000000000000000089
:101760000000010203040102030406070809000047
:040000050800018965
:00000001FF
