:020000040800F2
:10000000C0060020CD010008DD060008B305000889
:10001000D906000887020008F1120008000000005D
:100020000000000000000000000000007D08000843
:10003000790400080000000065070008690900084D
:10004000E7010008E7010008E7010008E7010008F0
:10005000E7010008E7010008E7010008E7010008E0
:10006000E7010008E7010008E7010008E7010008D0
:10007000E7010008E7010008E7010008E7010008C0
:10008000E7010008E7010008E7010008E7010008B0
:10009000E7010008E7010008E7010008E7010008A0
:1000A000E7010008E7010008E7010008E701000890
:1000B000E7010008E50A0008ED0B0008E701000869
:1000C000E7010008E7010008E7010008E701000870
:1000D000E7010008E7010008E7010008E701000860
:1000E000E7010008E7010008E7010008E701000850
:1000F000E7010008E7010008110E0008E701000809
:10010000E7010008E7010008F50C0008E701000816
:10011000E7010008E7010008E7010008E70100081F
:10012000E7010008E7010008E7010008E70100080F
:1001300000F002F800F03AF80AA090E8000C8244BF
:100140008344AAF10107DA4501D100F02FF8AFF29C
:10015000090EBAE80F0013F0010F18BFFB1A43F0A5
:1001600001031847D0180000F0180000103A24BF0F
:1001700078C878C1FAD8520724BF30C830C144BF0C
:1001800004680C607047000000230024002500264E
:10019000103A28BF78C1FBD8520728BF30C148BFEA
:1001A0000B6070471FB51FBD10B510BD00F031F8D2
:1001B0001146FFF7F7FF01F09DF800F04FF803B488
:1001C000FFF7F2FF03BC00F057F800000948804732
:1001D00009480047FEE7FEE7FEE7FEE7FEE7FEE729
:1001E000FEE7FEE7FEE7FEE704480549054A064B41
:1001F000704700006D09000831010008C0000020B0
:10020000C0060020C0020020C002002070477047D6
:100210007047754600F02CF8AE4605006946534617
:1002200020F00700854618B020B5FFF7DDFFBDE8D8
:1002300020404FF000064FF000074FF000084FF04D
:10024000000B21F00701AC46ACE8C009ACE8C009DE
:10025000ACE8C009ACE8C0098D46704710B504464B
:10026000AFF300802046BDE81040FFF7A8BF0000B4
:10027000004870476000002001491820ABBEFEE72F
:1002800026000200704700BFFEE7000000F080512A
:1002900011B10349086001E002494860704700005D
:1002A000040402400000024021B1026842F0010251
:1002B000026004E002684FF6FE731A400260704765
:1002C00001684FF6FE72114001600021016041603B
:1002D0008160C1604B49884208D14A490839496860
:1002E00041F00F01474A083A51608AE0454914310C
:1002F000884208D143490839496841F0F001414A30
:10030000083A51607DE03F492831884208D13D4993
:100310000839496841F470613A4A083A516070E01E
:1003200038493C31884208D136490839496841F496
:100330007041344A083A516063E032495031884292
:1003400008D130490839496841F470212D4A083AEA
:10035000516056E02B496431884208D12949083957
:10036000496841F47001274A083A516049E025493B
:100370007831884208D123490839496841F07061D1
:10038000204A083A51603CE01F49884206D1011FCB
:10039000096841F00F01021F116032E01A4914315F
:1003A000884208D11849091F096841F0F001164A2E
:1003B000121F116025E014492831884208D11249E2
:1003C000091F096841F470610F4A121F116018E09B
:1003D0000D493C31884208D10B49091F096841F495
:1003E0007041094A121F11600BE0074950318842E1
:1003F00007D10549091F096841F47021024A121FFB
:1004000011607047080002400804024001460020C5
:10041000002201F0805313B1054B1A6801E0054B2F
:100420001A6802EA01030BB1012000E000207047C6
:10043000000402400000024010B50022026847F6A6
:10044000F0739A430C6A8B6823430C6923434C690D
:1004500023438C692343CC6923434C6A23438C6A2E
:1004600023431A430260CB6843600B6883604B6888
:10047000C36010BD416070477047002107E0002253
:1004800000E0521C42F614039A42FADB491C8142F6
:10049000F5DB70472DE9F0410246002500260020DB
:1004A00000230024002791F803C00CF00F0591F8F9
:1004B00003C00CF0100CBCF1000F03D091F802C087
:1004C0004CEA050591F800C0BCF1000F31D014686A
:1004D00000202BE04FF0010C0CFA00F3B1F800C043
:1004E0000CEA03069E4220D183004FF00F0C0CFA59
:1004F00003F7BC4305FA03FC4CEA040491F803C07B
:10050000BCF1280F06D14FF0010C0CFA00FCC2F828
:1005100014C00AE091F803C0BCF1480F05D14FF0B8
:10052000010C0CFA00FCC2F810C0401C0828D1D302
:100530001460B1F800C0BCF1FF0F34DD5468002036
:100540002EE000F1080C4FF0010808FA0CF3B1F8A6
:1005500000C00CEA03069E4221D183004FF00F0C2D
:100560000CFA03F7BC4305FA03FC4CEA040491F8C7
:1005700003C0BCF1280F05D100F1080C08FA0CF8F3
:10058000C2F8148091F803C0BCF1480F07D100F104
:10059000080C4FF0010808FA0CF8C2F81080401C53
:1005A0000828CED35460BDE8F081416170470161F5
:1005B000704700BFFEE7000008B5012140F221109E
:1005C00000F0E2F84FF48040ADF8000003208DF811
:1005D000020010208DF8030069460248FFF75AFF19
:1005E00008BD00000020014010B586B0044601217E
:1005F00044F2040000F0C8F84FF40070ADF81400A5
:1006000003208DF8160018208DF8170005A9124850
:10061000FFF740FF4FF48060ADF8140004208DF820
:10062000170005A90C48FFF735FF01940020ADF82D
:100630000800ADF80A00ADF80C00ADF810000C2071
:10064000ADF80E0001A9054800F0E6FD01210348C0
:1006500000F0CCFD06B010BD00080140003801409C
:10066000F0B58BB007460D4616461C4601210846DC
:1006700000F07AF83846FFF723FE0D480480009515
:100680000196102002900394002004908020059091
:1006900000200690079020200890C00109900020BB
:1006A0000A9069463846FFF7C7FE0BB0F0BD000060
:1006B0005E00002010B5044600212046FFF7F4FD3F
:1006C000044801882046FFF7D5FE01212046FFF7A8
:1006D000EBFD10BD5E00002000BFFEE7704700008C
:1006E00070B5002100230F22C47804B3154C246890
:1006F00004F4E064C4F5E064210AC1F10403CA40D3
:10070000447804FA03F184781440214309010E4C23
:100710000678A155047804F01F050124AC40057843
:100720006D11AD0005F1E025C5F8004109E0047840
:1007300004F01F050124AC40044D0678761145F8FD
:10074000264070BD0CED00E000E400E080E100E038
:1007500002490143024A1160704700000000FA0597
:100760000CED00E07047000029B1064A52690243CF
:10077000044B5A6104E0034A52698243014B5A61B7
:10078000704700000010024029B1064A92690243F6
:10079000044B9A6104E0034A92698243014B9A61D7
:1007A000704700000010024030B5002100220024F4
:1007B00000232D4D6D6805F00C0121B1042905D0F1
:1007C000082923D105E0294D056022E0274D056069
:1007D0001FE0254D6D6805F47012234D6D6805F41A
:1007E0008034022505EB92421CB9214D554305602A
:1007F0000BE01D4D6D6805F400351DB11C4D5543D2
:10080000056002E0194D5543056002E0174D056093
:1008100000BF00BF144D6D6805F0F0010909154DCA
:100820006B5C0568DD4045600F4D6D6805F4E06167
:10083000090A104D6B5C4568DD4085600A4D6D68A6
:1008400005F46051C90A0B4D6B5C4568DD40C5601D
:10085000054D6D6805F44041890B074D6B5CC5681B
:10086000B5FBF3F5056130BD0010024000127A00BF
:1008700000093D000000002010000020704710B566
:1008800000F002F810BD00000CB5002001900090AF
:100890003348006840F480303149086000BF304878
:1008A000006800F4003000900198401C019000980E
:1008B00018B90198B0F5A06FF1D12948006800F48B
:1008C000003010B10120009001E00020009000985D
:1008D000012843D12348006840F0100021490860F6
:1008E0000846006820F0030008600846006840F0F1
:1008F000020008601A484068194948600846406884
:1009000048600846406840F4806048600846406897
:1009100020F47C1048600846406840F4E8104860C5
:100920000846006840F08070086000BF0C4800680E
:1009300000F000700028F9D00948406820F003005A
:10094000074948600846406840F00200486000BF20
:100950000348406800F00C000828F9D10CBD0000E5
:1009600000100240002002407047000010B51348FC
:10097000006840F0010011490860084640681049CD
:1009800008400E494860084600680E4908400B4977
:1009900008600846006820F4802008600846406827
:1009A00020F4FE0048604FF41F008860FFF767FFE7
:1009B0004FF000600449086010BD000000100240C4
:1009C0000000FFF8FFFFF6FE08ED00E0F0B50C4672
:1009D000154600220021068C4FF6FE773E40068425
:1009E000028B018C4FF60C7632407E1C06EA031611
:1009F0002E433243104EB0420ED0104EB0420BD0B8
:100A0000B0F1804F08D00E4EB04205D00D4EB0422E
:100A100002D00D4EB04206D14FF6FD76314044F083
:100A20000106314305E04FF6F576314044F001060A
:100A3000314302830184F0BD002C014000340140A9
:100A40000004004000080040000C0040F0B50C46D7
:100A50001546002200210026078C4FF6EF7C07EA9E
:100A60000C070784028B018C4FF6FF7707EA041608
:100A700040F6FF473A404FF6FF7707EA03373A431D
:100A80004FF6FF7707EA05273A43114FB8420ED0D9
:100A9000104FB8420BD0B0F1804F08D00E4FB84283
:100AA00005D00E4FB84202D00D4FB84206D14FF6D6
:100AB000DF77394046F01007394305E04FF65F779E
:100AC000394044F01007394302830184F0BD00002F
:100AD000002C0140003401400004004000080040A8
:100AE000000C00402DE9F0470421344800F094FA4E
:100AF00000285CD03248007800F04000002843D045
:100B00002F48007840F080002D4908702B4800F0F5
:100B100080FA2C4908800846008800F003FD06464C
:100B2000294A2A4B00F012FD0446294A294B00F0BD
:100B300051FC804600F01CFC27490860084600680C
:100B400026490860002026490860052025490860DC
:100B500011E0224822490968405C2349214A126871
:100B600088541F480068401C1D4908601D480068E3
:100B7000401C1C4908601A4800680428E9DB002171
:100B80000E4800F063FA12E000200D4908700D498C
:100B900008800021094800F0BFFA0948007840F0B9
:100BA0004000074908700221044800F04FFA042170
:100BB000024800F01FFABDE8F08700000004004082
:100BC000380000203A00002036D261231D36B23FA3
:100BD000024D21D014725AC01800002028000020B5
:100BE00044000020480000204C0000202DE9F04780
:100BF0000421344800F010FA00285CD03248007814
:100C000000F04000002843D02F48007840F08000DA
:100C10002D4908702B4800F0FCF92C490880084643
:100C2000008800F07FFC0646294A2A4B00F08EFC23
:100C30000446294A294B00F0CDFB804600F098FB82
:100C400027490860084600682649086000202649B0
:100C5000086009202549086011E0224822490968F6
:100C6000405C2349214A126888541F480068401C90
:100C70001D4908601D480068401C1C4908601A484E
:100C800000680428E9DB00210E4800F0DFF912E0DB
:100C900000200D4908700D4908800021094800F026
:100CA0003BFA0948007840F04000074908700221EB
:100CB000044800F0CBF90421024800F09BF9BDE89C
:100CC000F0870000000800403C0000203E000020AB
:100CD0006F6748CCDB19B23FE6ED0C89793B5AC00F
:100CE0001C0000202C0000204400002048000020B0
:100CF0004C0000202DE9F0470421384800F08CF921
:100D0000002865D03648007800F0400000284CD01C
:100D10003348007840F08000314908702F4800F0D7
:100D200078F9304908800846008800F0FBFB064649
:100D30002D4A2E4B00F00AFC04462D4A2D4B00F0A4
:100D400049FB804600F014FB2B4908602B492A48D8
:100D5000006800F0EFFD02D2002027490860264815
:100D60000068274908600020264908600D202649B0
:100D7000086011E0224823490968405C2349224A5F
:100D8000126888541F480068401C1E4908601E48AD
:100D90000068401C1C4908601A4800680428E9DB08
:100DA00000210E4800F052F912E000200C490870B2
:100DB0000C4908800021094800F0AEF90848007885
:100DC00040F04000064908700221044800F03EF956
:100DD0000421024800F00EF9BDE8F087000C004045
:100DE0004000002042000020D2BC9B2224CFFF3FC5
:100DF000766FC3805538A7C0200000200000C8428D
:100E00003000002044000020480000204C0000205A
:100E10002DE9F0470421344800F0FEF800285CD0AA
:100E20003248007800F04000002843D02F48007876
:100E300040F080002D4908702B4800F0EAF82C495A
:100E400008800846008800F06DFB0646294A2A4BB8
:100E500000F07CFB0446294A294B00F0BBFA80468F
:100E600000F086FA274908600846006826490860AD
:100E700000202649086001202549086011E0224829
:100E800022490968405C2349214A126888541F4856
:100E90000068401C1D4908601D480068401C1C4932
:100EA00008601A4800680428E9DB00210E4800F0B9
:100EB000CDF812E000200D4908700D49088000218E
:100EC000094800F029F90948007840F04000074936
:100ED00008700221044800F0B9F80421024800F02B
:100EE00089F8BDE8F087000000340140340000209C
:100EF000360000202184104208210040BEF7DE7B2E
:100F0000EF67A7C014000020240000204400002048
:100F1000480000204C00002000B589B0012142F2B9
:100F20001000FFF731FC8020ADF8200004208DF880
:100F3000230003208DF8220008A92C48FFF7AAFA05
:100F400080212A48FFF731FB4FF6FF70ADF81800FB
:100F50004720ADF814000020ADF81A00ADF81600D7
:100F60008DF81C0005A9224800F0EEF80420ADF829
:100F700008000020ADF80A000120ADF80C000020A8
:100F8000ADF80E00ADF8100002A9194800F06BF89A
:100F90006021174800F0A5F80421154800F0B3F8C7
:100FA0008021134800F0A6F84FF4E060FFF7D0FB73
:100FB0002E208DF8040000208DF8050001208DF80A
:100FC00006008DF8070001A8FFF78AFB0122042123
:100FD000074800F032F80421054800F00BF8012121
:100FE000034800F00AF809B000BD000000100140FD
:100FF00000340140CA430282704721B1028842F0A6
:101000000102028004E002884FF6FE731A4002805B
:1010100070470146888E704730B502460020002395
:101020000024158A05EA0103958905EA010413B134
:101030000CB1012000E0002030BD1AB183890B43C0
:10104000838102E083898B43838170470A460021B4
:10105000018C4FF6DF7319404FF6FF7303EA02135A
:101060001943018470472DE9F04105460C460026DE
:101070000127608808B9022600E00026A088012820
:1010800001D1022700E001272088A0B92389A28886
:1010900061882846FFF79AFCE188284600F03EF870
:1010A00023893A4631462846FFF7D0FCE188284696
:1010B00000F03DF813E02389A28861882846FFF7F5
:1010C000C5FCE188284600F032F823893A463146CB
:1010D0002846FFF77BFCE188284600F01FF8BDE8B2
:1010E000F0810A46002101894FF68F7319401143A0
:1010F0000181704702894FF67F731A40028102898D
:101100000A430281704702894FF6F8731A40028140
:1011100002890A430281704781847047028B4FF62F
:10112000F3731A400283028B0A4302837047028BD7
:101130004FF2FF331A400283028B4FF6FF7303EA2C
:1011400001231A4302837047002202881D4B9842F4
:101150000ED01D4B98420BD0B0F1804F08D01B4BE6
:10116000984205D01A4B984202D01A4B984204D1AB
:101170004FF68F731A404B881A43174B984207D08B
:10118000164B984204D04FF6FF431A40CB881A43BF
:1011900002808B8883850B8803850A4B98420BD08D
:1011A000094B984208D00E4B984205D00D4B9842FF
:1011B00002D00D4B984201D10B7A03860123838222
:1011C00070470000002C0140003401400004004042
:1011D00000080040000C00400010004000140040D7
:1011E00000400140004401400048014021B1828993
:1011F00042F40052828104E082894DF6FF731A4066
:10120000828170471AB1838A0B43838202E0838A0A
:101210008B438382704700002DE9F04786B0054676
:101220000E460024A24600BFA1460027B08900B1A7
:1012300000BF2F462C8A4CF6FF700440F088044310
:101240002C82AC894EF6F3100440B08831890843F3
:10125000718908430443AC81AC8A4FF6FF400440D7
:10126000B0890443AC8201A8FFF79EFA1F48874269
:1012700002D1DDF810A001E0DDF80CA0A88900F48F
:10128000004040B10AEBCA0000EB0A103168490087
:10129000B0FBF1F807E00AEBCA0000EB0A10316876
:1012A0008900B0FBF1F86420B8FBF0F004012009DC
:1012B000642101FB1089A88900F4004040B132206C
:1012C00000EBC900B0FBF1F000F00700044308E0B8
:1012D000322000EB09106421B0FBF1F000F00F00A8
:1012E00004432C8106B0BDE8F087000000380140BF
:1012F00000BFFEE7FFF760F9FFF70EFE4FF4E130A5
:10130000FFF772F91223164A16491748FFF7A8F992
:1013100025E0012280211348001FFFF773FF1248C8
:10132000FFF7C8F909E04FF40050FFF76FF820B15C
:101330004FF40050FEF7AAFF00E0F4E700BF4FF4BF
:1013400080410A48FFF733F93220FFF796F84FF44F
:1013500080410648FFF729F93220FFF78EF8D8E7D9
:101360004C000020043801404400024000200140AD
:1013700021F00042A2F16052B2F5801F01F000435B
:1013800028BFD2F17F6C0BD95FEA001C43EAC2028E
:1013900042EB507018BF704728BF20F00100704723
:1013A000B2F5801FBCBF184670474FEA410C1CF5D0
:1013B000001F02D2084600F037BB70B500F070F98C
:1013C00000000089FFF7F6BF4FF00040A0F5800055
:1013D0007047000010B591EA030F48BF83F0004347
:1013E00000F1BA81841A71EB030C05D2121943EB98
:1013F0000C03001B61EB0C01DFF824E14FEA1154F0
:10140000A4EB135C1EEA430F18BF9EEA445F73D03F
:1014100023EA0E03DCF1200E21EA045143F4801389
:1014200032D322FA0CFE10EB0E0023FA0CFE41EB35
:101430000E01CCF1200E03FA0EFE10EB0E0051F15E
:101440000001B1F5801FCCF1200E32D201EB045126
:1014500012FA0EF2BDE8104058BF7047401C38BF6A
:101460005FEA420218BF7047002814BF20F0010055
:1014700041F100014FEA410313F5001F38BF7047E7
:10148000A1F1C04100F05AB9012A43EB0302ACF1CB
:10149000200CDCF11F0E32BF4FF0000E23FA0CF3CC
:1014A00010EB030041EB0451B4EB115FD0D0A1EB82
:1014B000045101F5801149085FEA300001EB045145
:1014C0000ED350F1000038BF12FA0EFE08D1BDE86D
:1014D0001040C9E7401C38BF5FEA4202CAD1C3E7E7
:1014E000BDE810404FEA410313F5001F38BF7047B5
:1014F000A1F1C04100F022B99EEA445F08D011EA90
:101500005E0FBDE8104004BF01F0004100207047AD
:10151000BDE8104070B500F0C3F800BF64FBBE3EEC
:101520000000E0FFB0FA80F310FA03F10AD0C3F133
:101530001D0303F580634FEA41504FEA035202EB6B
:10154000D12170474FF0000070470000DFF848C11C
:1015500070B51CEA111E1EBF1CEA13159EEA0C0F83
:1015600095EA0C0F00F06F8081EA030423EA4C1324
:101570004EEAD47E21EA4C1141F4801143F48013E9
:10158000AE44A1FB024CA0FB0365AEF17F7E361991
:1015900055EB0C05A1FB034C4CF10003A0FB021C16
:1015A00016EB0C06654153F10003094218BF46F0E3
:1015B000010613F4007F0BD14FEA03314FEA0530E7
:1015C000340341EA155140EA16506FF003020AE075
:1015D0004FEAC3214FEAC520F40241EA555140EADF
:1015E00056506FF0020202EB2E4201EB025585EAE3
:1015F000CE710AD05FEA440C18BF24F0004450F1C9
:10160000000041F1000120EAD47040F2FE7C624506
:1016100000D270BDA84214BF4FF080444FF0404448
:10162000002E08BF0024BEF1806FA8BFA1F1C04109
:10163000BDE8704080F282804FF0000001F1C041AF
:1016400001F0004170479EEA0C0F0CEA131518BF19
:1016500095EA0C0F06D04FF0000081EA030E0EF061
:10166000004170BD00F01CF88900013E00F007B891
:1016700000F009B84FEA430C5FEA5C5C08D081EAED
:10168000030100F05BB84FEA410C5FEA5C5CF6D105
:101690004FF00000014970470000FF070000F87F8D
:1016A0000EF1020E2EF0030E5EF8046B364205D4E6
:1016B000012A43EB030515F5001F12D8012841EB61
:1016C000010C1CF5001F0CD80ED14FEAD17C15F58A
:1016D000001F0CEB4C0C0CF1020C08BF4CEBD37C44
:1016E00004E04FF0080C01E04FEAD37C0CEB4C0512
:1016F00026FA05F606F00706B6F1040C06D20EEB44
:10170000860CBDE870404CF0010C6047DFE80CF03F
:10171000090B02024FF000414FF00000A1F500213B
:1017200070BD19461046012851EB010418BFD4F5CD
:10173000001484BF002001F0004170BD0808A0F52E
:1017400000114FEA3101704710B591EA030F48BF0D
:1017500083F000433FF546AE841A71EB030C07D2C9
:1017600012198CF0004C43EB0C03001B61EB0C01D5
:10177000DFF8A4E14FEA1154A4EB135C1EEA430F17
:1017800018BF9EEA445F00F0B08023EA6E03524225
:1017900021EA0451C3EB6E0338BF5B1EDCF1200E5F
:1017A00025D322FA0CFE10EB0E0043FA0CFE41EB9F
:1017B0000E01CCF1200E03FA0EFE10EB0E0051F1DB
:1017C0000001CCF1200E29D412FA0EF201EB0451E3
:1017D000BDE8104058BF7047401C1CBFB2F1004F1D
:1017E000704700280CBF491C20F00100704712EB25
:1017F000020E43EB030218BF4FF0010E4EEA420205
:10180000ACF1200CDCF11E0E54D943FA0CFE10EBA7
:101810000E0051F1FF31CCF11E0ED5D50EF1010EA7
:1018200012FA0EFE404141EB010101EB445C5FEA1C
:101830005C5C10D910EBDE7001EB045138BFBEF1D7
:10184000004FBDE8104018BF704700280CBF491C6E
:1018500020F00100704730D24FEAD42C11F500116E
:1018600024F400641BD0B1FA81F20B3AA41AA41E2E
:10187000D2F12003914030FA03F31943904001EB79
:10188000CC71002C01EB0451BDE81040A8BF70479B
:1018900001F1C0414FF0000001F000417047B0FA83
:1018A00080F310FA03F100D110BDE41A173C48058B
:1018B000C90AE4E701EB045110BD491001EB0451E2
:1018C000BDE810404FEA300002E04FF000017047E1
:1018D0004A0008BF0042F8D0B2F5001F28BF704789
:1018E00001F000414FF0000070479EEA445F07D0CE
:1018F00011EA5E0FBDE8104004BF002100207047D0
:10190000BDE8104070B5FFF7CBFE00BF40DFF63EEC
:1019100083F00041104670470000E0FF401058BFC0
:10192000C0F14040491058BFC1F140418142EFF33E
:101930000080704750EA010C00F113801CF5000F85
:1019400058BFBCF5000F01D48842704707D710F587
:10195000000F58BF11F5000F15D488427047894217
:1019600070471CF5000F04D5BCF5000FF7D5814278
:1019700070474FF0807C1CEB400F38BF1CEB410FD1
:1019800001D28142704710B500F008F89224490056
:101990004FF000504FF08051FFF7C0BF0EF1020E24
:1019A0002EF0030E5EF8044B244204D44FEA4102A9
:1019B000B2F17F4F11D84FEA4003B3F17F4F0CD8FB
:1019C0000ED14FEAD07CB2F17F4F0CEB4C0C0CF1F6
:1019D000020C08BF4CEBD17C04E04FF0080C01E096
:1019E0004FEAD17C0CEB4C0324FA03F404F0070417
:1019F000B4F1040C06D20EEB840CBDE810404CF0A0
:101A0000010C6047DFE80CF0070802024FF00040CD
:101A1000A0F5800010BD0846420018BFD2F18072C8
:101A200088BF00F0004010BDFF2141EAD050C00542
:101A300070470000541A00080000002060000000F9
:101A40006C010008B41A0008600000206006000065
:101A500088010008000000000102030401020304E1
:101A60000607080902040608000000000000000044
:101A70000000000000000000000000000000000066
:101A80000000000000000000000000000000000056
:101A90000000000000000000000000000000000046
:101AA0005A000000000000000000000000000000DC
:041AB00000330000FF
:04000005080001CD21
:00000001FF
