:020000040800F2
:10000000C8070020CD010008D119000831150008EB
:10001000E9180008D903000899270008000000002B
:100020000000000000000000000000004D1C00085F
:100030008113000800000000791A0008391D00082B
:10004000E7010008E7010008E7010008E7010008F0
:10005000E7010008E7010008E7010008E7010008E0
:10006000E7010008E7010008E7010008E7010008D0
:10007000FD100008E7010008E7010008E70100089B
:10008000E7010008E701000875030008E701000820
:10009000E7010008E7010008E7010008E7010008A0
:1000A000E70100089D1D0008E7010008E7010008BE
:1000B000BD1E0008E7010008E7010008E70100088D
:1000C000E7010008E7010008E7010008E701000870
:1000D000E7010008B9250008E7010008E70100086A
:1000E000E7010008E7010008E7010008E701000850
:1000F000E7010008E7010008E7010008E701000840
:10010000E7010008E7010008E7010008E70100082F
:10011000E7010008E7010008E7010008E70100081F
:10012000E7010008E7010008E7010008E70100080F
:1001300000F002F800F03AF80AA090E8000C8244BF
:100140008344AAF10107DA4501D100F02FF8AFF29C
:10015000090EBAE80F0013F0010F18BFFB1A43F0A5
:100160000103184798380000B8380000103A24BF3F
:1001700078C878C1FAD8520724BF30C830C144BF0C
:1001800004680C607047000000230024002500264E
:10019000103A28BF78C1FBD8520728BF30C148BFEA
:1001A0000B6070471FB51FBD10B510BD00F0A8F85B
:1001B0001146FFF7F7FF02F0F1FA00F0C6F803B4BA
:1001C000FFF7F2FF03BC00F0CDF8000009488047BC
:1001D00009480047FEE7FEE7FEE7FEE7FEE7FEE729
:1001E000FEE7FEE7FEE7FEE704480549054A064B41
:1001F000704700003D1D000831010008C8010020C3
:10020000C8070020C8030020C8030020032A40F2CA
:10021000308010F0030C00F0158011F8013BBCF1A8
:10022000020F624498BF11F801CB00F8013B38BFC0
:1002300011F8013BA2F1040298BF00F801CB38BFCE
:1002400000F8013B11F0030300F02880083AC0F0E9
:10025000088051F8043B083A51F804CBA0E8081094
:10026000F5E7121D5CBF51F8043B40F8043BAFF3C7
:100270000080D20724BF11F8013B11F801CB48BF21
:1002800011F8012B24BF00F8013B00F801CB48BF57
:1002900000F8012B704770477047704710B5203A3F
:1002A000C0F00B80B1E81850203AA0E81850B1E82F
:1002B0001850A0E81850BFF4F5AF5FEA027C24BFE5
:1002C000B1E81850A0E8185044BF18C918C0BDE8DC
:1002D00010405FEA827C24BF51F8043B40F8043BA5
:1002E00008BF7047D20728BF31F8023B48BF11F85A
:1002F000012B28BF20F8023B48BF00F8012B7047B4
:10030000754600F02BF8AE4605006946534620F0CE
:100310000700854618B020B5FFF766FFBDE820400E
:100320004FF000064FF000074FF000084FF0000BB1
:1003300021F00701AC46ACE8C009ACE8C009ACE864
:10034000C009ACE8C0098D46704710B50446AFF34C
:1003500000802046BDE81040FFF731BF00487047DD
:100360006801002001491820ABBEFEE7260002000C
:100370007047000010B50C4800F01FF804464FF419
:100380000871094800F014F8B4F5FA7F03DDFF2086
:100390000649087002E00020044908700121024863
:1003A00000F00FF810BD000000240140DA0000202A
:1003B00000220A12D343036070470146C86C80B222
:1003C000704721B1826842F4A002826003E0826833
:1003D00022F4A0028260704700BFFEE71FB58AB01A
:1003E0000A9807287DD2DFE810F07C00070023017F
:1003F00051024703520448050020FE49DDE90C2361
:1004000002F05AFF0022FC4BCDE9000102F054FF3C
:100410000022FA4BCDE9020102F01AFE0022F84B4D
:10042000CDE9040102F03CFCCDE90801F548006883
:1004300003F02CF8CDE90601DDE9082302F0CCFD3C
:1004400069D2F048006803F021F8EF4AEF4BCDE99C
:10045000060102F071FBCDE9080102F03BFBE9491E
:1004600008600846006803F0DFF880B20146099092
:10047000E74802F01BF80020DE49DDE90C2302F01A
:100480001BFF0022DC4BCDE9000102F015FF00222A
:10049000DA4BCDE9020102F0DBFD0022D84BCDE9B9
:1004A000040102F0FDFBCDE90801D648006802F026
:1004B000EDFFCDE90601DDE9082302F0C7FE29D8EA
:1004C0000020CC49DDE90C2302F0F6FE0022CA4BE5
:1004D000CDE9020102F0F0FE0022C84BCDE9040193
:1004E00000E0C8E202F0B4FD0022C54BCDE90601F0
:1004F00002F0D6FBCDE9080102F0ECFAC149086030
:100500000846006803F090F880B201460990C048A0
:1005100001F0CCFF8BE00020B649DDE90C2302F0AE
:10052000CBFE0022B44BCDE9000102F0C5FE002253
:10053000B24BCDE9020102F08BFD0022B04BCDE9B8
:10054000040102F0ADFBCDE90801AE48006802F0FD
:100550009DFFCDE90601DDE9082302F077FE66D2B2
:10056000A848006802F092FFA74AA84BCDE906010F
:1005700002F0A2FECDE9080102F0ACFAA149086040
:100580000846006803F050F880B201460990A04880
:1005900001F08CFF00209749DDE90C2302F08CFE6E
:1005A0000022954BCDE9000102F086FE0022934B1C
:1005B000CDE9020102F04CFD0022914BCDE904018E
:1005C00002F06EFBCDE908018E48006802F05EFF84
:1005D000CDE90601DDE9082302F0FEFC27D8002062
:1005E0008449DDE90C2302F067FE0022824BCDE94D
:1005F000020102F061FE0022804BCDE9040102F00D
:1006000027FD00227E4BCDE9060102F049FBCDE932
:10061000080102F05FFA7B4908600846006803F0B1
:1006200003F880B201460990794801F03FFF22E2C9
:1006300000207049DDE90C2302F03EFE00226E4BE3
:10064000CDE9000102F038FE00226C4BCDE9020139
:1006500002F0FEFC00226A4BCDE9040102F020FB0F
:10066000CDE908016B48006802F010FFCDE90601F2
:10067000DDE9082302F0B0FC67D26648006802F0AA
:1006800005FF614A614BCDE9060102F055FACDE95B
:10069000080102F01FFA5F4908600846006802F08E
:1006A000C3FF80B201460990594801F001FF0020C4
:1006B0005049DDE90C2302F0FFFD00224E4BCDE94D
:1006C000000102F0F9FD00224C4BCDE9020102F0DD
:1006D000BFFC00224A4BCDE9040102F0E1FACDE96A
:1006E00008014C48006802F0D1FECDE90601DDE9C1
:1006F000082302F0ABFD27D800203E49DDE90C239A
:1007000002F0DAFD00223C4BCDE9020102F0D4FDFB
:1007100000223A4BCDE9040102F09AFC0022384B4A
:10072000CDE9060102F0BCFACDE9080102F0D2F9E8
:10073000384908600846006802F076FF80B201463A
:100740000990334801F0B4FE9FE000202949DDE91B
:100750000C2302F0B1FD0022274BCDE9000102F08D
:10076000ABFD0022254BCDE9020102F071FC002215
:10077000234BCDE9040102F093FACDE908012548A5
:10078000006802F083FECDE90601DDE9082302F0EE
:100790005DFD7AD21F48006802F078FE1A4A1B4BB2
:1007A000CDE9060102F088FDCDE9080102F092F9D9
:1007B000184908600846006802F036FF80B201461A
:1007C0000990134801F074FE00200A49DDE90C236A
:1007D00002F072FD0022084BCDE9000102F06CFD31
:1007E0000022064BCDE9020102F032FC0022044B4C
:1007F00012E0000000806640008046C000408F404C
:100800000080564000000020721CC7711CC74B407E
:100810000008004004000020CDE9040102F040FA85
:10082000CDE90801FE48006802F030FECDE906017E
:10083000DDE9082302F0D0FB27D80020F949DDE9E3
:100840000C2302F039FD0022F74BCDE9020102F042
:1008500033FD0022F54BCDE9040102F0F9FB002243
:10086000F34BCDE9060102F01BFACDE9080102F0D5
:1008700031F9EB4908600846006802F0D5FE80B205
:1008800001460990EB4801F013FED0E60022E64B4A
:10089000DDE90C0102F010FD0022E44BCDE902017C
:1008A00002F0D6FB0022E24BCDE9040102F0F8F998
:1008B000CDE90801E048006802F0E8FDCDE9060155
:1008C000DDE9082302F088FB5BD2DB48006802F018
:1008D000DDFDDA4ADA4BCDE9060102F02DF9CDE96A
:1008E000080102F0F7F8D44908600846006802F0F1
:1008F0009BFE80B201460990CE4801F0DBFD00224C
:10090000C94BDDE90C0102F0D7FC0022C74BCDE951
:10091000020102F09DFB0022C54BCDE9040102F06B
:10092000BFF9CDE90801C448006802F0AFFDCDE988
:100930000601DDE9082302F089FC21D80022BA4B28
:10094000DDE90C0102F0B8FC0022B84BCDE904014E
:1009500002F07EFB0022B64BCDE9060102F0A0F9C1
:10096000CDE9080102F0B6F8B3490860084600680E
:1009700002F05AFE80B201460990AE4801F09AFD9D
:1009800079E00022A84BDDE90C0102F095FC002281
:10099000A64BCDE9020102F05BFB0022A44BCDE99E
:1009A000040102F07DF9CDE90801A348006802F0D6
:1009B0006DFDCDE90601DDE9082302F047FC5AD2BE
:1009C0009D48006802F062FD9C4A9D4BCDE90601FE
:1009D00002F072FCCDE9080102F07CF8964908604B
:1009E0000846006802F020FE80B201460990914856
:1009F00001F060FD00228C4BDDE90C0102F05CFC93
:100A000000228A4BCDE9020102F022FB0022884B32
:100A1000CDE9040102F044F9CDE9080186480068F7
:100A200002F034FDCDE90601DDE9082302F0D4FA35
:100A300021D800227C4BDDE90C0102F03DFC0022B4
:100A40007A4BCDE9040102F003FB0022784BCDE99B
:100A5000060102F025F9CDE9080102F03BF87649DC
:100A600008600846006802F0DFFD80B20146099088
:100A7000704801F01FFD31E300226B4BDDE90C01F2
:100A800002F01AFC0022694BCDE9020102F0E0FA03
:100A90000022674BCDE9040102F002F9CDE908011B
:100AA0006848006802F0F2FCCDE90601DDE90823A0
:100AB00002F092FA5BD26348006802F0E7FC5F4AFA
:100AC0005F4BCDE9060102F037F8CDE9080102F0ED
:100AD00001F85C4908600846006802F0A5FD80B294
:100AE00001460990534801F0E7FC00224E4BDDE936
:100AF0000C0102F0E1FB00224C4BCDE9020102F0B7
:100B0000A7FA00224A4BCDE9040102F0C9F8CDE969
:100B100008014C48006802F0B9FCCDE90601DDE9A6
:100B2000082302F093FB21D800223F4BDDE90C01A2
:100B300002F0C2FB00223D4BCDE9040102F088FA2D
:100B400000223B4BCDE9060102F0AAF8CDE90801ED
:100B500001F0C0FF3B4908600846006802F064FDF0
:100B600080B201460990334801F0A6FC8EE00022D5
:100B70002D4BDDE90C0102F09FFB00222B4BCDE950
:100B8000020102F065FA0022294BCDE9040102F0CE
:100B900087F8CDE908012B48006802F077FCCDE921
:100BA0000601DDE9082302F051FB6FD225480068F9
:100BB00002F06CFC214A224BCDE9060102F07CFBDD
:100BC000CDE9080101F086FF1E490860084600686B
:100BD00002F02AFD80B201460990164801F06CFC33
:100BE0000022114BDDE90C0102F066FB00220F4BE5
:100BF000CDE9020102F02CFA00220D4BCDE90401EF
:100C000002F04EF8CDE908010E48006802F03EFC03
:100C1000CDE90601DDE9082302F0DEF936D813E05C
:100C20000400002000806640008046C000408F40E5
:100C3000008056400008004008000020721CC77168
:100C40001CC74B400C0000200022FE4BDDE90C01CC
:100C500002F032FB0022FC4BCDE9040102F0F8F96E
:100C60000022FA4BCDE9060102F01AF8CDE908019D
:100C700001F030FFF64908600846006802F0D4FC35
:100C800080B201460990F34801F016FC26E20022EA
:100C9000EC4BDDE90C0102F00FFB0022EA4BCDE941
:100CA000020102F0D5F90022E84BCDE9040101F080
:100CB000F7FFCDE90801E848006802F0E7FBCDE95D
:100CC0000601DDE9082302F087F95BD2E2480068FB
:100CD00002F0DCFBE14AE24BCDE9060101F02CFF1A
:100CE000CDE9080101F0F6FEDB490860084600681E
:100CF00002F09AFC80B201460990DA4801F0D6FB76
:100D00000022D04BDDE90C0102F0D6FA0022CE4BD6
:100D1000CDE9020102F09CF90022CC4BCDE904019F
:100D200001F0BEFFCDE90801CB48006802F0AEFB40
:100D3000CDE90601DDE9082302F088FA21D8002276
:100D4000C04BDDE90C0102F0B7FA0022BE4BCDE941
:100D5000040102F07DF90022BC4BCDE9060101F04F
:100D60009FFFCDE9080101F0B5FEBB4908600846C8
:100D7000006802F059FC80B201460990B94801F0C0
:100D800095FB79E00022AF4BDDE90C0102F094FA0B
:100D90000022AD4BCDE9020102F05AF90022AB4B23
:100DA000CDE9040101F07CFFCDE90801AA48006803
:100DB00002F06CFBCDE90601DDE9082302F046FAFA
:100DC0005AD2A548006802F061FBA44AA44BCDE9C1
:100DD000060102F071FACDE9080101F07BFE9E499F
:100DE00008600846006802F01FFC80B201460990C6
:100DF0009C4801F05BFB0022924BDDE90C0102F004
:100E00005BFA0022904BCDE9020102F021F90022A9
:100E10008E4BCDE9040101F043FFCDE908018E4876
:100E2000006802F033FBCDE90601DDE9082302F09A
:100E3000D3F821D80022834BDDE90C0102F03CFA03
:100E40000022814BCDE9040102F002F900227F4B20
:100E5000CDE9060101F024FFCDE9080101F03AFED9
:100E60007D4908600846006802F0DEFB80B201465A
:100E700009907C4801F01AFB30E100207A49DDE955
:100E80000C2302F019FA00226E4BCDE9000102F0AA
:100E900013FA00226C4BCDE9020102F0D9F80022CE
:100EA0006A4BCDE9040101F0FBFECDE908016F4872
:100EB000006802F0EBFACDE90601DDE9082302F053
:100EC0008BF867D26948006802F0E0FA634A644B25
:100ED000CDE9060101F030FECDE9080101F0FAFD8F
:100EE000624908600846006802F09EFB80B2014635
:100EF00009905C4801F0DCFA00205B49DDE90C2335
:100F000002F0DAF900224F4BCDE9000102F0D4F9EA
:100F100000224D4BCDE9020102F09AF800224B4B22
:100F2000CDE9040101F0BCFECDE908014F4800689D
:100F300002F0ACFACDE90601DDE9082302F086F9FA
:100F400027D800204849DDE90C2302F0B5F900223A
:100F50003C4BCDE9020102F0AFF900223A4BCDE95A
:100F6000040102F075F80022384BCDE9060101F0CA
:100F700097FECDE9080101F0ADFD3C490860084647
:100F8000006802F051FB80B201460990354801F03B
:100F90008FFAA2E000203449DDE90C2302F08CF93D
:100FA0000022284BCDE9000102F086F90022264BF1
:100FB000CDE9020102F04CF80022244BCDE90401F6
:100FC00001F06EFECDE908012848006802F05EFAE3
:100FD000CDE90601DDE9082302F038F97DD2234886
:100FE000006802F053FA1D4A1D4BCDE9060102F0DC
:100FF00063F9CDE9080101F06DFD1C490860084660
:10100000006802F011FB80B201460990154801F01A
:101010004FFA00201449DDE90C2302F04DF90022BB
:10102000084BCDE9000102F047F90022064BCDE95B
:10103000020102F00DF80022044BCDE9040101F099
:101040002FFE15E0008046C000408F4000805640D3
:101050000C0000200008004010000020721CC77126
:101060001CC74B4000040040008066401400002074
:10107000CDE908011B48006802F008FACDE9060135
:10108000DDE9082301F0A8FF27D800201649DDE993
:101090000C2302F011F90022144BCDE9020102F0F9
:1010A0000BF90022124BCDE9040101F0D1FF00221F
:1010B000104BCDE9060101F0F3FDCDE9080101F087
:1010C00009FD084908600846006802F0ADFA80B2E0
:1010D00001460990084801F0EBF900BF00BF0EB0CF
:1010E00010BD00001400002000806640008046C053
:1010F00000408F40008056400004004010B500249E
:10110000202000F007F9C8B101200D4908600D4802
:101110000488001D048800210B4800F033F82020CB
:1011200000F014F8202000F01FF840F22661054876
:1011300001F078FA2B21044800F020F910BD0000DE
:101140001C000020004800401C00024000F08051BC
:1011500011B10349086001E002494860704700008E
:10116000040402400000024000F0805111B1034924
:10117000086001E002494860704700000404024032
:101180000000024021B1026842F00102026004E066
:1011900002684FF6FE731A400260704701684FF60E
:1011A000FE72114001600021016041608160C160F8
:1011B0004B49884208D14A490839496841F00F0132
:1011C000474A083A51608AE045491431884208D1BB
:1011D00043490839496841F0F001414A083A5160F1
:1011E0007DE03F492831884208D13D4908394968A6
:1011F00041F470613A4A083A516070E038493C3134
:10120000884208D136490839496841F47041344A66
:10121000083A516063E032495031884208D1304980
:101220000839496841F470212D4A083A516056E066
:101230002B496431884208D129490839496841F469
:101240007001274A083A516049E0254978318842BF
:1012500008D123490839496841F07061204A083AA9
:1012600051603CE01F49884206D1011F096841F0E6
:101270000F01021F116032E01A491431884208D16F
:101280001849091F096841F0F001164A121F116040
:1012900025E014492831884208D11249091F0968FC
:1012A00041F470610F4A121F116018E00D493C3182
:1012B000884208D10B49091F096841F47041094A65
:1012C000121F11600BE007495031884207D10549D0
:1012D000091F096841F47021024A121F116070470A
:1012E000080002400804024001460020002201F0EC
:1012F000805313B1054B1A6801E0054B1A6802EAE6
:1013000001030BB1012000E00020704700040240FF
:101310000000024001460020002201F0805313B17A
:10132000054B1A6801E0054B1A6802EA01030BB18C
:10133000012000E00020704700040240000002404D
:1013400010B50022026847F6F0739A430C6A8B6866
:1013500023430C6923434C6923438C692343CC69A1
:1013600023434C6A23438C6A23431A430260CB68AD
:1013700043600B6883604B68C36010BD4160704779
:1013800070472DE9F0410246002500260020002389
:101390000024002791F803C00CF00F0591F803C05A
:1013A0000CF0100CBCF1000F03D091F802C04CEA15
:1013B000050591F800C0BCF1000F31D01468002081
:1013C0002BE04FF0010C0CFA00F3B1F800C00CEA6E
:1013D00003069E4220D183004FF00F0C0CFA03F756
:1013E000BC4305FA03FC4CEA040491F803C0BCF1C9
:1013F000280F06D14FF0010C0CFA00FCC2F814C003
:101400000AE091F803C0BCF1480F05D14FF0010C80
:101410000CFA00FCC2F810C0401C0828D1D314609C
:10142000B1F800C0BCF1FF0F34DD546800202EE09D
:1014300000F1080C4FF0010808FA0CF3B1F800C0F5
:101440000CEA03069E4221D183004FF00F0C0CFAE8
:1014500003F7BC4305FA03FC4CEA040491F803C00B
:10146000BCF1280F05D100F1080C08FA0CF8C2F8FD
:10147000148091F803C0BCF1480F07D100F1080CAB
:101480004FF0010808FA0CF8C2F81080401C082838
:10149000CED35460BDE8F081F0B50A4600230024A5
:1014A0000021002500F00046B6F1004F02D11D4E8C
:1014B000F16901E01B4E7168C0F3034583B200F48B
:1014C0004016B6F5401F08D121F07061154E7668C0
:1014D00026F07066134F7E6012E000F48016B6F5B9
:1014E000801F06D1032606FA05F4A14341F070617E
:1014F00006E0460D360103FA06F6B14341F070618D
:1015000022B1460D360103FA06F6314300F00046DB
:10151000B6F1004F02D1034EF16101E0014E71605E
:10152000F0BD00000000014041617047016170475B
:1015300000BFFEE708B50121080200F0FDFA4FF4F4
:101540008040ADF8000003208DF8020010208DF8D7
:10155000030069460148FFF714FF08BD0020014061
:101560002DE9F04F89B007460C4615461E46DDE9C9
:10157000139ADDF848800121312000F0DDFA0121C5
:10158000062000F0B9FA18208DF823004FF47040BF
:10159000ADF8200003208DF8220008A96D48FFF760
:1015A000F0FE18208DF823004FF4E070ADF8200015
:1015B00003208DF8220008A96748FFF7E2FE1020FB
:1015C0008DF823004FF4C060ADF8200003208DF8A3
:1015D000220008A96048FFF7D4FE01210803FFF7A5
:1015E0005BFF01215D48FFF757FF44F61F60ADF830
:1015F00018004720ADF814000020ADF81A00ADF82F
:10160000160005A9564800F05DFF44F61F60ADF8CE
:1016100018004720ADF814000020ADF81A00ADF80E
:10162000160005A94F4800F04DFF01214C4800F07D
:10163000D9FC01214B4800F0D5FC6020ADF8040036
:10164000384601F0F1FF80B2ADF80A000020ADF895
:101650000C000120ADF8060001A9414800F0FAFD98
:101660006020ADF80400204601F0DEFF80B2ADF846
:101670000A000020ADF80C000120ADF8060001A919
:10168000374800F033FE6020ADF80400284601F032
:10169000CBFF80B2ADF80A000020ADF80C000120AD
:1016A000ADF8060001A92E4800F072FE6020ADF8EA
:1016B0000400304601F0B8FF80B2ADF80A00002007
:1016C000ADF80C000120ADF8060001A9244800F097
:1016D000AFFE6020ADF80400404601F0A5FF80B2E7
:1016E000ADF80A000020ADF80C000120ADF80600AE
:1016F00001A91C4800F0AEFD6020ADF8040048468A
:1017000001F092FF80B2ADF80A000020ADF80C00A5
:101710000120ADF8060001A9124800F0E7FD6020A5
:10172000ADF804001049504601F0EAFF834601F08D
:101730007BFF80B2ADF80A000020ADF80C0001205C
:10174000ADF8060001A9074800F022FE09B0BDE887
:10175000F08F00000014014000100140000C1A003E
:1017600000080040000400400000A0411FB5012116
:10177000084600F0C1F940F2E730ADF8080041F644
:101780001F40ADF804000020ADF80A00ADF80600D7
:1017900001A94FF0804000F095FE0121880700F07C
:1017A0001BFC01221146900700F04BFD1C208DF818
:1017B000000001208DF8030002208DF801008DF853
:1017C0000200684600F006F94FF4A06000F03AF914
:1017D0000121880700F006FC1FBD000000B585B0A0
:1017E0000121052000F0A8F90121480400F084F946
:1017F0000121084600F070F90420ADF8100018200F
:101800008DF8130001208DF8120004A91448FFF789
:10181000B8FD0820ADF8100004208DF81300012059
:101820008DF8120004A90E48FFF7ABFD4FF4E1302C
:1018300000900020ADF80400ADF80600ADF80800F7
:101840000C20ADF80A000020ADF80C0069460548F0
:1018500000F036FF0121034800F0F3FE05B000BDA3
:1018600000080140004400402DE9F0438BB00746DA
:101870000D4616461C46DDE912890121084600F096
:101880002BF90F4804803846FFF788FC0394CDF805
:10189000088000200A900196079080200590CDF8DE
:1018A000209000950020069004904FF480500990FD
:1018B00069463846FFF744FD0BB0BDE8F0830000F1
:1018C000D800002010B5044600212046FFF75AFC3E
:1018D000044801882046FFF751FD01212046FFF70B
:1018E00051FC10BDD800002000BFFEE72DE9F047F5
:1018F000044600252E4804602E4801684FF08040C1
:1019000001F0FEFE82462A480168504601F0F5FFCC
:10191000814629480168484601F0E4FD8046274891
:101920000168404601F0ECFE064621480168244863
:10193000006801F0E5FE81461E4801681C48006809
:1019400001F0E6FF82461F480168504601F0D8FECC
:101950008046494601F0C6FD0746314601F0C2FD0A
:10196000054629461848006801F0BCFD1649086084
:1019700016491548006801F08FFF03D21348124939
:10198000086008E000211048006801F085FE02D2DE
:1019900000200D49086007480068074908600448AE
:1019A00000680449086008480068BDE8F087000046
:1019B000E8000020EC000020FC000020F8000020DF
:1019C000F4000020F0000020E400002000007A4431
:1019D0007047000070B5002100230F22C47804B3C3
:1019E000154C246804F4E064C4F5E064210AC1F1F4
:1019F0000403CA40447804FA03F184781440214374
:101A000009010E4C0678A155047804F01F05012445
:101A1000AC4005786D11AD0005F1E025C5F8004139
:101A200009E0047804F01F050124AC40044D067859
:101A3000761145F8264070BD0CED00E000E400E0B2
:101A400080E100E002490143024A11607047000052
:101A50000000FA050CED00E008B519208DF8000033
:101A600001208DF803008DF8010000208DF80200A0
:101A70006846FFF7AFFF08BD704710B5012104208D
:101A800000F05AF80121480300F056F810BD00009C
:101A90000EB5104800F0B2FA4FF6FF70ADF8040032
:101AA0000020ADF80000ADF80600ADF80200694670
:101AB000084800F007FD00231A461946054800F0C3
:101AC00091FB0021034800F0FAFC0121014800F0DD
:101AD00089FA0EBD0034014029B1064A5269024319
:101AE000044B5A6104E0034A52698243014B5A6134
:101AF000704700000010024029B1064AD269024333
:101B0000044BDA6104E0034AD2698243014BDA6193
:101B1000704700000010024029B1064A12690243D2
:101B2000044B1A6104E0034A12698243014B1A61B3
:101B3000704700000010024029B1064A9269024332
:101B4000044B9A6104E0034A92698243014B9A6113
:101B5000704700000010024029B1064AD2680243D3
:101B6000044BDA6004E0034AD2688243014BDA6036
:101B7000704700000010024030B500210022002410
:101B800000232D4D6D6805F00C0121B1042905D00D
:101B9000082923D105E0294D056022E0274D056085
:101BA0001FE0254D6D6805F47012234D6D6805F436
:101BB0008034022505EB92421CB9214D5543056046
:101BC0000BE01D4D6D6805F400351DB11C4D5543EE
:101BD000056002E0194D5543056002E0174D0560B0
:101BE00000BF00BF144D6D6805F0F0010909154DE7
:101BF0006B5C0568DD4045600F4D6D6805F4E06184
:101C0000090A104D6B5C4568DD4085600A4D6D68C2
:101C100005F46051C90A0B4D6B5C4568DD40C56039
:101C2000054D6D6805F44041890B074D6B5CC56837
:101C3000B5FBF3F5056130BD0010024000127A00DB
:101C400000093D000001002010010020704710B580
:101C500000F002F810BD00000CB5002001900090CB
:101C60003348006840F480303149086000BF304894
:101C7000006800F4003000900198401C019000982A
:101C800018B90198B0F5A06FF1D12948006800F4A7
:101C9000003010B10120009001E000200090009879
:101CA000012843D12348006840F010002149086012
:101CB0000846006820F0030008600846006840F00D
:101CC000020008601A4840681949486008464068A0
:101CD00048600846406840F48060486008464068B4
:101CE00020F47C1048600846406840F4E8104860E2
:101CF0000846006840F08070086000BF0C4800682B
:101D000000F000700028F9D00948406820F0030076
:101D1000074948600846406840F00200486000BF3C
:101D20000348406800F00C000828F9D10CBD000001
:101D300000100240002002407047000010B5134818
:101D4000006840F0010011490860084640681049E9
:101D500008400E494860084600680E4908400B4993
:101D600008600846006820F4802008600846406843
:101D700020F4FE0048604FF41F008860FFF767FF03
:101D80004FF000600449086010BD000000100240E0
:101D90000000FFF8FFFFF6FE08ED00E02DE9F05F20
:101DA0004FF0000A01213A4800F03AFA00286CD0BE
:101DB000384800883849088008460088374909882B
:101DC000401A17D43448008834490988A0EB010828
:101DD0004FEAE87108EB9171881001F0E6F80646C9
:101DE0002F4A304B00F05CFF044600F073FE2E4992
:101DF000086017E02848008828490988401A00F53B
:101E000080384FEAE87108EB9171881001F0CDF845
:101E10000646234A234B00F043FF044600F05AFED7
:101E200021490860204801682048006801F070FDE1
:101E30000446FFF75BFD824600211C48006801F064
:101E4000BFFB16D0504601F021FB80460022184B04
:101E500001F0FEF806460022164B00F021FF044672
:101E600001F076F81FFA80FB5946134800F022FB78
:101E700003E00021104800F01DFB074800880749D7
:101E800008800121024800F0AAF8BDE8F09F000098
:101E9000002C014024340140980000209A000020CA
:101EA0009A9999999999C93F9C000020DC000020DB
:101EB0000088D34000408F400004004070B50121ED
:101EC000880700F0ADF9002872D00121880700F0E2
:101ED00086F83848007800284CD1374890F821001F
:101EE00048B93648006801F0D1FA044622460B464C
:101EF0000120FEF773FA304890F8220048B93048C4
:101F0000006801F0C3FA044622460B460220FEF7A1
:101F100065FA294890F8230048B92A48006801F07A
:101F2000B5FA044622460B460320FEF757FA22482C
:101F300090F8240048B92448006801F0A7FA044644
:101F400022460B460420FEF749FA2048006801F0BB
:101F50009DFA044622460B460520FEF73FFA1C4830
:101F6000006801F093FA044622460B460620FEF76D
:101F700035FA1DE00022174B0120FEF72FFA002250
:101F8000144B0220FEF72AFA0022124B0320FEF720
:101F900025FA00220F4B0420FEF720FA00220D4BF9
:101FA0000520FEF71BFA00220A4B0620FEF716FA60
:101FB00070BD0000DA00002048000020A0000020D2
:101FC000A4000020A8000020AC000020B0000020E9
:101FD000B400002000805640CA4302827047CA43C2
:101FE0000282704721B1028842F00102028004E0BF
:101FF00002884FF6FE731A400280704710B50446FF
:102000006848844208D10121C014FFF7A5FD0021D2
:10201000E014FFF7A1FDC4E0B4F1804F08D1012125
:102020000846FFF779FD00210120FFF775FDB8E0B4
:102030005D48844208D101210220FFF76DFD002197
:102040000220FFF769FDACE05848844208D1012125
:102050000420FFF761FD00210420FFF75DFDA0E0F3
:102060005348844208D101210820FFF755FD002183
:102070000820FFF751FD94E04E48844208D1012129
:102080001020FFF749FD00211020FFF745FD88E0F3
:102090004948844208D101212020FFF73DFD00215D
:1020A0002020FFF739FD7CE04448844208D101211B
:1020B0004014FFF751FD00216014FFF74DFD70E063
:1020C0003F48844209D10121C804FFF745FD0021A2
:1020D0004FF40020FFF740FD63E03A48844209D105
:1020E00001210805FFF738FD00214FF48010FFF7AC
:1020F00033FD56E03448844209D101214805FFF7F9
:102100002BFD00214FF40010FFF726FD49E02F487A
:10211000844208D101214020FFF7FEFC002140202D
:10212000FFF7FAFC3DE02A48844208D101218020D3
:10213000FFF7F2FC00218020FFF7EEFC31E025489C
:10214000844208D101218015FFF7E6FC0021A0158B
:10215000FFF7E2FC25E02048844209D10121080470
:10216000FFF7FAFC00214FF48030FFF7F5FC18E090
:102170001A48844209D101214804FFF7EDFC0021EF
:102180004FF40030FFF7E8FC0BE01548844208D11B
:1021900001218804FFF7E0FC00214FF48020FFF7C5
:1021A000DBFC10BD002C0140000400400008004092
:1021B000000C0040001000400014004000340140BA
:1021C000004C014000500140005401400018004004
:1021D000001C00400020004000400140004401403D
:1021E00000480140F0B504460D4616461F463B46E2
:1021F00032462946204600F005F8208940F4804008
:102200002081F0BD30B50C4600210189C9B24FF6DE
:10221000FF7505EA0325154325432943018130BD98
:1022200030B50246002000230024158A05EA010388
:10223000958905EA010413B10CB1012000E00020EA
:1022400030BD1AB183890B43838102E083898B43BC
:102250008381704770B5002400220023058C4FF65F
:10226000FE7635400584028C8388048B4FF68F758B
:102270002C40B51E2C400D882C43751E2A400D891C
:102280002A434D882A43144DA8420BD0134DA8422F
:1022900008D0134DA84205D0124DA84202D0124DCD
:1022A000A84213D14FF6F7752A404D892A434FF6BD
:1022B000FB752A408D882A434FF6FF652B404FF669
:1022C000FF552B408D892B43CD892B43838004837D
:1022D000CD888586028470BD002C01400034014009
:1022E00000400140004401400048014070B5002416
:1022F00000220023058C4FF6EF7635400584028CD2
:102300008388048B48F6FF752C404FF6FF452C4020
:102310000D884FF6FF7606EA05252C434FF6DF754C
:102320002A400D8906EA05152A434D8806EA051557
:102330002A43154DA84202D0144DA8421DD14FF694
:102340007F752A404D894FF6FF7606EA05152A4328
:102350004FF6BF752A408D8806EA05152A434FF6C9
:10236000FF352B404FF2FF752B408D8906EA85051E
:102370002B43CD8906EA85052B4383800483CD88D2
:102380000587028470BD0000002C0140003401402C
:1023900070B5002400220023058C4FF6FF663540FF
:1023A0000584028C8388848B4FF68F752C404FF602
:1023B000FC752C400D882C434FF6FF552A400D89A3
:1023C0004FF6FF7606EA05252A434D8806EA0525DD
:1023D0002A43154DA84202D0144DA8421DD14FF2F8
:1023E000FF752A404D894FF6FF7606EA05252A43F8
:1023F0004FF6FF352A408D8806EA05252A434EF61A
:10240000FF752B404DF6FF752B408D8906EA0515AB
:102410002B43CD8906EA05152B4383808483CD8821
:102420008587028470BD0000002C0140003401400B
:1024300070B5002200230024058C4EF6FF7635404F
:102440000584038C8488828B48F6FF752A404FF6FA
:10245000FF452A400D884FF6FF7606EA05252A43F8
:102460004DF6FF752B400D8906EA05352B434D8847
:1024700006EA05352B430B4DA84202D00A4DA8426F
:1024800008D14BF6FF752C408D894FF6FF7606EA92
:1024900085152C4384808283CD88A0F84050038426
:1024A00070BD0000002C014000340140818670475F
:1024B0000187704781877047A0F84010704781847A
:1024C00070470000002202881D4B98420ED01D4B21
:1024D00098420BD0B0F1804F08D01B4B984205D0EA
:1024E0001A4B984202D01A4B984204D14FF68F7380
:1024F0001A404B881A43174B984207D0164B984204
:1025000004D04FF6FF431A40CB881A4302808B88D1
:1025100083850B8803850A4B98420BD0094B984260
:1025200008D00E4B984205D00D4B984202D00D4B6F
:10253000984201D10B7A0386012383827047000001
:10254000002C01400034014000040040000800401D
:10255000000C00400010004000140040004001400A
:1025600000440140004801400EB50121C802FFF7B8
:10257000E3FA40F2CF70ADF8040041F61F40ADF829
:1025800000000020ADF806008DF80800ADF802004C
:1025900069460848FFF796FF01210648FFF71CFD32
:1025A000012211460348FFF74CFE01210148FFF7C5
:1025B00019FD0EBD002C014070B50024002540F22D
:1025C0002441144800F052F810B312480488001D4A
:1025D000048800211048FEF7D5FD29220F49104834
:1025E000FDF714FE0E480078FF2809D10C4890F83A
:1025F0002800332804D1012107483C38FEF7C2FDEA
:1026000029210548FEF7BAFE01210348FEF7BAFD6D
:1026100070BD000000380140580002401401002045
:102620003D01002010B50022002340F66A14A142AB
:1026300000D100BF0A1201249440A3B2DC430480FD
:1026400010BD21B1828942F40052828104E0828966
:102650004DF6FF731A40828170471AB1838A0B438B
:10266000838202E0838A8B438382704770B502467F
:10267000002400230025002040F66A16B14200D154
:1026800000BFC1F3421501F01F03012606FA03F350
:10269000012D02D19689334006E0022D02D1168A1F
:1026A000334001E0968A33400C12012606FA04F406
:1026B0001688344013B10CB1012000E0002070BD39
:1026C0002DE9F04786B005460E460024A24600BF1D
:1026D000A1460027B08900B100BF2F462C8A4CF6D6
:1026E000FF700440F08804432C82AC894EF6F3104E
:1026F0000440B08831890843718908430443AC81A0
:10270000AC8A4FF6FF400440B0890443AC8201A874
:10271000FFF732FA1F48874202D1DDF810A001E02E
:10272000DDF80CA0A88900F4004040B10AEBCA0013
:1027300000EB0A1031684900B0FBF1F807E00AEB42
:10274000CA0000EB0A1031688900B0FBF1F8642080
:10275000B8FBF0F004012009642101FB1089A8896D
:1027600000F4004040B1322000EBC900B0FBF1F0B2
:1027700000F00700044308E0322000EB0910642158
:10278000B0FBF1F000F00F0004432C8106B0BDE86F
:10279000F08700000038014000BFFEE70EB5FFF7EC
:1027A000CDFAFEF7C7FEA7480168A7480068A74A08
:1027B0001268CDE900200291A5480368A548026887
:1027C000A5480168A5480068FEF7CAFEFFF706F8AD
:1027D000FEF7CCFFFFF740F9FFF74FF9FFF758F985
:1027E000FFF7C2FE2020002128239D4ACDE90010DA
:1027F0009C499D48FFF738F8012240219948001F65
:10280000FFF72BFF9848FFF75DF84FF4804197489A
:10281000FEF78CFE4FF400719548FEF787FE4FF4EB
:1028200080619348FEF780FE0BE14FF40010FEF745
:102830005BFD00287BD0002400254FF40010FEF73C
:1028400085FC00BF04E08648005D8A490855641C89
:10285000282CF8DB874800785A2811D18548407821
:1028600001280DD18348C07F332809D1002404E01A
:102870008048005D80490855641C282CF8DB08E07E
:10288000002404E07C48005D7A490855641C282C2B
:10289000F8DB0024022505E07648405D77490855BD
:1028A000641C6D1C042CF7DB7448006874490860D4
:1028B0000024062505E06F48405D72490855641CF8
:1028C0006D1C042CF7DB6F4800686F49086000241A
:1028D0000A2505E06748405D6C490855641C6D1C7D
:1028E000042CF7DB694800686949086000240E255C
:1028F00005E06048405D67490855641C6D1C042C68
:10290000F7DB64480068644908600024122505E08C
:102910005848405D61490855641C6D1C042CF7DB68
:102920005E4800685E4908600024162506E07FE0E6
:102930005048405D5B490855641C6D1C042CF7DB56
:10294000584800685849086000241A2505E049489D
:10295000405D56490855641C6D1C042CF7DB454846
:1029600090F82000FF280AD14FF480614048FEF71C
:10297000DDFD4FF400713E48FEF7D6FD09E04FF44F
:1029800000713B48FEF7D2FD4FF480613848FEF7F6
:10299000CBFD46480068464908603648807FFF28DE
:1029A00030D12EE000214FF08040FFF71BFB0021CB
:1029B0004048FFF717FB40F2DC513F48FFF776FD38
:1029C00040F2DC513C48FFF773FD40F2DC513A48DD
:1029D000FFF770FD40F2DC513748FFF76DFD40F224
:1029E000DC513648FFF762FD40F2DC513348FFF717
:1029F0005FFD00213148FFF75DFD01218807FFF7EA
:102A0000F1FACFE71B4991F8250000F02DFE2C4983
:102A10000860184991F8260000F026FE2949086050
:102A2000144991F8270000F01FFE2749086000BFF5
:102A300026480078264981F829000E48807F81F8D1
:102A40002A00F2E6180000201400002010000020E8
:102A50000C000020080000200400002000000020DE
:102A600020000020044400406C000240002001408F
:102A7000001001404800002070000020BC00002031
:102A8000A0000020C0000020A4000020C4000020FE
:102A9000A8000020C8000020AC000020CC000020CE
:102AA000B0000020D0000020B4000020D40000209E
:102AB000DC000020002C0140000800400004004021
:102AC000F0000020F4000020F8000020DA000020D0
:102AD0003D01002021F00042A2F16052B2F5801FBA
:102AE00001F0004328BFD2F17F6C0BD95FEA001CD4
:102AF00043EAC20242EB507018BF704728BF20F073
:102B000001007047B2F5801FBCBF184670474FEAFE
:102B1000410C1CF5001F02D2084600F0B8BE70B58B
:102B200000F040FB00000089FFF7F6BF4FF00040C7
:102B3000A0F580007047000010B591EA030F48BF70
:102B400083F0004300F1C083841A71EB030C05D2BB
:102B5000121943EB0C03001B61EB0C01DFF824E1BD
:102B60004FEA1154A4EB135C1EEA430F18BF9EEA10
:102B7000445F73D023EA0E03DCF1200E21EA0451F6
:102B800043F4801332D322FA0CFE10EB0E0023FA2A
:102B90000CFE41EB0E01CCF1200E03FA0EFE10EB01
:102BA0000E0051F10001B1F5801FCCF1200E32D2A0
:102BB00001EB045112FA0EF2BDE8104058BF704705
:102BC000401C38BF5FEA420218BF7047002814BF9C
:102BD00020F0010041F100014FEA410313F5001F0D
:102BE00038BF7047A1F1C04100F02ABB012A43EB76
:102BF0000302ACF1200CDCF11F0E32BF4FF0000ECF
:102C000023FA0CF310EB030041EB0451B4EB115F1A
:102C1000D0D0A1EB045101F5801149085FEA3000E2
:102C200001EB04510ED350F1000038BF12FA0EFE32
:102C300008D1BDE81040C9E7401C38BF5FEA420236
:102C4000CAD1C3E7BDE810404FEA410313F5001FA6
:102C500038BF7047A1F1C04100F0F2BA9EEA445F6C
:102C600008D011EA5E0FBDE8104004BF01F000413A
:102C700000207047BDE8104070B500F093FA00BF27
:102C800064FBBE3E0000E0FF491058BFC1F1404167
:102C90005B1058BFC3F140438B42EFF30080704795
:102CA0002DE9C04130B4DFF8A0C23CEA111418BFCE
:102CB0003CEA131400F0EC8081EA03051CEA1114CD
:102CC00044EAD57418BF1CEA131500F0C780A4EBC2
:102CD00005044FF0004545EAC12145EAC32341EA16
:102CE000505143EA525304F17F74994204F5003481
:102CF0004FEAC0204FEAC22208BF904200F09C80F9
:102D00004FEA13650FF24016765D4FEA134506FB56
:102D100005F7C7F1807706FB07F74FEAD737A7FB20
:102D200003687642C8F58038A7FB06CE38BFA8F105
:102D3000010807FB08E64FF0000EA6FB028CE6FB3D
:102D400003CEDCF1000CCEF1004E38BFAEF1010E27
:102D5000A6FB0C584FF000074FF00005E6FB0E876E
:102D6000A1FB08C6A0FB07CE16EB0E0645F1000539
:102D7000E1FB076515F1E04E7EBFA4F580345FEA04
:102D800046066D4116F1800745F100054FEA172709
:102D90004FEA066647EA0567A6F1DE46B6F1805FB0
:102DA0004FEA15251FD9384624F0010C05EBC471F4
:102DB000BCF1FE6F01EB0C1102D8F0BCBDE8008144
:102DC00024425CBF01F5801E9EEAC47F02D4F0BCA1
:102DD000BDE80081244238D4F0BCA1F1C041BDE877
:102DE000004100F02DBA4FEAD22242EA43524FEAA4
:102DF000D323A7FB02864FEAD02040EA415007FBCD
:102E000003661EEA0E0F4FEAD12105FB026658BF8A
:102E1000A6EB0056B6EB00564FEA520E4EEAC37EC2
:102E200018EB0E0E56EB530EBDD518EB02085E41A3
:102E30007F1C55F10005B6E74FF480154FF00007F1
:102E40004FF000064FF00008ADE7F0BC4FF0000077
:102E500001F1C04101F00041BDE8008111EA0C1F01
:102E60000CEA131500D00CE013EA0C1F00F02580CB
:102E70004FF00000F0BC81EA030101F00041BDE821
:102E80000081F0BCBDE8004181EA030100F0D8B93F
:102E9000F0BCBDE8004170B500F084F9097EFC3E4D
:102EA00000F007B881EA03014FF0000001F0004193
:102EB000704781EA030100F0C3B9F0BCBDE80041EE
:102EC0004FF0000021497047FFFDFBF9F7F5F4F2E0
:102ED000F0EEEDEBE9E8E6E4E3E1E0DEDDDBDAD8B5
:102EE000D7D5D4D3D1D0CFCDCCCBCAC8C7C6C5C413
:102EF000C2C1C0BFBEBDBCBBBAB9B8B7B6B5B4B32A
:102F0000B2B1B0AFAEADACABAAA9A8A8A7A6A5A414
:102F1000A3A3A2A1A09F9F9E9D9C9C9B9A999998D8
:102F20009797969595949393929191908F8F8E8E7B
:102F30008D8C8C8B8B8A8989888887878685858408
:102F400084838382828181800000FF070000F87FF4
:102F50004FEA1153A3F58063D3F11E03A8BFD3F149
:102F6000200C08DB4FF0004242EAC12252EA5052E4
:102F700032FA03F0704709420BD4102BC4BF002073
:102F8000704703F5787CBCF1FF3F05D04FF0FF3070
:102F900070474FF00000704770B500F003F900BFB4
:102FA0004992248000207047F0E710F0004248BFAB
:102FB0004042B0FA80F310FA03F10AD0C3F11D03C6
:102FC00003F580634FEA415002EB035202EBD1213B
:102FD00070474FF00000704751EA030C17D41CF5FE
:102FE000801F58BFBCF5801F00F10680994218BFB2
:102FF000704708BF9042704707D711F5801F58BF30
:1030000013F5801F19D499427047894270471CF507
:10301000801F08D5BCF5801FF7D58B4218BF7047BD
:1030200008BF824270474FF4001C1CEB410F38BFB1
:103030001CEB430F01D28B42704770B500F0B2F821
:10304000922449004FF000514FF08053FFF71CBE0F
:10305000DFF848C170B51CEA111E1EBF1CEA13152B
:103060009EEA0C0F95EA0C0F00F06F8081EA0304D2
:1030700023EA4C134EEAD47E21EA4C1141F480112C
:1030800043F48013AE44A1FB024CA0FB0365AEF1F8
:103090007F7E361955EB0C05A1FB034C4CF1000368
:1030A000A0FB021C16EB0C06654153F1000309421C
:1030B00018BF46F0010613F4007F0BD14FEA03312D
:1030C0004FEA0530340341EA155140EA16506FF0DB
:1030D00003020AE04FEAC3214FEAC520F40241EAA5
:1030E000555140EA56506FF0020202EB2E4201EBBE
:1030F000025585EACE710AD05FEA440C18BF24F06D
:10310000004450F1000041F1000120EAD47040F287
:10311000FE7C624500D270BDA84214BF4FF08044CF
:103120004FF04044002E08BF0024BEF1806FA8BFBE
:10313000A1F1C041BDE8704080F282804FF00000F4
:1031400001F1C04101F0004170479EEA0C0F0CEA0A
:10315000131518BF95EA0C0F06D04FF0000081EA56
:10316000030E0EF0004170BD00F01CF88900013E16
:1031700000F007B800F009B84FEA430C5FEA5C5C66
:1031800008D081EA030100F05BB84FEA410C5FEA26
:103190005C5CF6D14FF00000014970470000FF076A
:1031A0000000F87F0EF1020E2EF0030E5EF8046BA5
:1031B000364205D4012A43EB030515F5001F12D84A
:1031C000012841EB010C1CF5001F0CD80ED14FEA71
:1031D000D17C15F5001F0CEB4C0C0CF1020C08BF58
:1031E0004CEBD37C04E04FF0080C01E04FEAD37CB9
:1031F0000CEB4C0526FA05F606F00706B6F1040CB2
:1032000006D20EEB860CBDE870404CF0010C604716
:10321000DFE80CF0090B02024FF000414FF0000014
:10322000A1F5002170BD19461046012851EB01049B
:1032300018BFD4F5001484BF002001F0004170BD18
:103240000808A0F500114FEA3101704753EA010C5C
:1032500017D41CF5801F58BFBCF5801F00F10680F5
:103260008B4218BF704708BF8242704707D713F5DB
:10327000801F58BF11F5801F19D48B4270479B42A5
:1032800070471CF5801F08D5BCF5801FF7D5994203
:1032900018BF704708BF904270474FF4001C1CEBEA
:1032A000430F38BF1CEB410F01D2994270470FB456
:1032B0000CBC03BCFFF7C1BE10B591EA030F48BFB9
:1032C00083F000433FF540AC841A71EB030C07D246
:1032D00012198CF0004C43EB0C03001B61EB0C014A
:1032E000DFF8A4E14FEA1154A4EB135C1EEA430F8C
:1032F00018BF9EEA445F00F0B08023EA6E0352429A
:1033000021EA0451C3EB6E0338BF5B1EDCF1200ED3
:1033100025D322FA0CFE10EB0E0043FA0CFE41EB13
:103320000E01CCF1200E03FA0EFE10EB0E0051F14F
:103330000001CCF1200E29D412FA0EF201EB045157
:10334000BDE8104058BF7047401C1CBFB2F1004F91
:10335000704700280CBF491C20F00100704712EB99
:10336000020E43EB030218BF4FF0010E4EEA420279
:10337000ACF1200CDCF11E0E54D943FA0CFE10EB1C
:103380000E0051F1FF31CCF11E0ED5D50EF1010E1C
:1033900012FA0EFE404141EB010101EB445C5FEA91
:1033A0005C5C10D910EBDE7001EB045138BFBEF14C
:1033B000004FBDE8104018BF704700280CBF491CE3
:1033C00020F00100704730D24FEAD42C11F50011E3
:1033D00024F400641BD0B1FA81F20B3AA41AA41EA3
:1033E000D2F12003914030FA03F31943904001EBEE
:1033F000CC71002C01EB0451BDE81040A8BF704710
:1034000001F1C0414FF0000001F000417047B0FAF7
:1034100080F310FA03F100D110BDE41A173C4805FF
:10342000C90AE4E701EB045110BD491001EB045156
:10343000BDE810404FEA300002E04FF00001704755
:103440004A0008BF0042F8D0B2F5001F28BF7047FD
:1034500001F000414FF0000070479EEA445F07D042
:1034600011EA5E0FBDE8104004BF00210020704744
:10347000BDE8104070B5FFF795FE00BF40DFF63E97
:1034800083F00041104670470000E0FF43004FEA20
:10349000D30C4FEA3C0C43401FBF40070CF1605176
:1034A00013F0FE4F70471CF0006F03D100200CF0AA
:1034B000004170470CF0004343EA507010B540EAF9
:1034C000CC0000F09EF900BF000000924FEA00011E
:1034D000FFF7B6BE4FF000414FF00000A1F500210C
:1034E0007047000090EA010F48BF81F0004100F1F1
:1034F0001682421A3CBF801A89184FEAD0524FF008
:103500007F4C1CEA410FA2EBD15318BF9CEA026F1B
:1035100000F03B804FF0004C4CEA00204CEA0121C7
:1035200021FA03FC10EB0C0C1ED202F1FF325FEA11
:103530001C2040EBC25038BF70471CF07F0F4FEA91
:10354000400C18BFBCF17F4F38BF7047C3F1200358
:10355000994008BF20F00100BCF17F4F38BF704791
:10356000A0F1C04000F093B94FEA3C00000A40EBE4
:10357000C25028BF1CF0FF0F4FEA400CE6D018BF26
:10358000BCF17F4F38BF7047EAE79CEA026F05D075
:1035900010EA5C0F08BF00F00040704710B500F063
:1035A00030F900BF64FBBE3E401058BFC0F1404040
:1035B000491058BFC1F140418142EFF3008070478C
:1035C00050EA010C00F113801CF5000F58BFBCF548
:1035D000000F01D48842704707D710F5000F58BF7D
:1035E00011F5000F15D488427047894270471CF5C9
:1035F000000F04D5BCF5000FF7D5814270474FF09E
:10360000807C1CEB400F38BF1CEB410F01D2814284
:10361000704710B500F0F5F8922449004FF00050C3
:103620004FF08051FFF7C0BFC10DD1F19E0206DB04
:103630004FEA002343F0004323FA02F070470042B0
:1036400007D54FEA4001B1F1FE4F02D24FF0000022
:10365000704710B500F0D5F84992248000207047DB
:103660006FEA20007047000010F0004148BF404260
:10367000B0FA80F310FA03F2C3F19D030BD051EAC4
:10368000C35101EB1220530638BF704700F101000F
:1036900008BF20F00100704750EA010C00F11380D0
:1036A0001CF5000F58BFBCF5000F01D488427047CD
:1036B00007D710F5000F58BF11F5000F15D4884239
:1036C0007047894270471CF5000F04D5BCF5000F08
:1036D000F7D5814270474FF0807C1CEB400F38BF1C
:1036E0001CEB410F01D28142704710B500F089F800
:1036F000922449004FF000504FF08051FFF754BF23
:103700004FF47F0C1CEAD0121EBF1CEAD11392EAC0
:103710000C0F93EA0C0F00F0478090EA010F48BFAE
:1037200042F480724FF0004C4CEA00204CEA012138
:1037300002EB0302A0FB0113A2F50002002918BF4F
:1037400043F001035B0028BF4FEA330342EB224200
:103750005FEA132C4CEBC2502EBFBCEB436FB2F5AB
:103760007C0F70474FEA036CBCF1004F08BF20F09C
:103770000100B2F57C0F38BF70470BD582F0FF0215
:1037800012F5803FC8BF704700F1C040D8BF00F0BD
:103790000040704700F5000C5FEA4C0C48BF7047D2
:1037A000B0F1C04000F073B890EA010F0CEAD113F9
:1037B00048BF42F48072624538BF634504D280EA54
:1037C000010000F00040704710B500F01AF800BF8B
:1037D0008900013E00F007B800F009B85FEA410C2B
:1037E0005FEA1C6C08D080EA010000F050B85FEA84
:1037F000400C5FEA1C6CF6D14FF00040A0F5800051
:1038000070470EF1020E2EF0030E5EF8044B2442B8
:1038100004D44FEA4102B2F17F4F11D84FEA40037E
:10382000B3F17F4F0CD80ED14FEAD07CB2F17F4F6D
:103830000CEB4C0C0CF1020C08BF4CEBD17C04E0FF
:103840004FF0080C01E04FEAD17C0CEB4C0324FA5A
:1038500003F404F00704B4F1040C06D20EEB840C5C
:10386000BDE810404CF0010C6047DFE80CF00708A1
:1038700002024FF00040A0F5800010BD0846420053
:1038800018BFD2F1807288BF00F0004010BDFF2148
:1038900041EAD050C005704751EA000C00F1138096
:1038A0001CF5000F58BFBCF5000F01D481427047D2
:1038B00007D711F5000F58BF10F5000F15D481423E
:1038C0007047894270471CF5000F04D5BCF5000F06
:1038D000F7D5884270474FF0807C1CEB410F38BF12
:1038E0001CEB400F01D28842704780EA010081EA58
:1038F000000180EA0100FFF7F8BE80F0004090EA86
:10390000010F7FF5F6AD81F0004100F008B800002E
:1039100090EA010F48BF81F000413FF5EAAD421A3D
:1039200004D882F00042A0EB020011444FEAD052CA
:103930004FF07F4C1CEA410FA2EBD15318BF9CEA19
:10394000026F4AD04FF0004C4CEA00204CEA0121B3
:1039500021FA03FCB0EB0C0C0FD412F0FE0F36D0A2
:103960005FEA4C001DD5001240EBC25038BF7047D3
:103970001CF03F0F18BF70470BE0A2F101025FEA95
:103980001C2040EBC25038BF70471CF07F0F18BF9F
:103990007047C3F12003994014BF401E20F001007E
:1039A000704780084FEA122308BF7047B0FA80FCC6
:1039B000A2EB0C02CCF1280C60FA0CF093EA122F67
:1039C00004BF00EBC25070474FEAC3707047130A40
:1039D0005FEADC1008BF7047F6E79CEA026F04D08C
:1039E00010EA5C0F08BF0020704710B5FFF709FF11
:1039F00040DFF63E81F00040704700001C3A0008AE
:103A000000000020140100006C010008303B000899
:103A100014010020B4060000880100080080BB44A7
:103A20000080BB440080BB440080BB440080BB449A
:103A30000080BB4400000000000000005A010000AC
:103A4000005A0000005A0000005A0000005A00000E
:103A5000005A0000005A000003E800330000000094
:103A6000000000005A010000005A0000005A000047
:103A7000005A0000005A0000005A0000005A0000DE
:103A800003E8003300000000000000005A010000BD
:103A9000005A0000005A0000005A0000005A0000BE
:103AA000005A0000005A000003E800330000000044
:103AB0000000000000000000000000000000B44210
:103AC0000000B4420000B4420000B4420000B4421E
:103AD0000000B442000000000000000000000000F0
:103AE00000000000000000000000000000000000D6
:103AF00000000000000000000000000000000000C6
:103B00000000000000000000000000000000204154
:103B100000004040000000400000000000000000E5
:103B2000010203040102030406070809020406084F
:04000005080001CD21
:00000001FF
